:100000000C942A000C9447000C9447000C94470071
:100010000C9447000C9447000C9443140C94101457
:100020000C9447000C94DD130C94E9120C94BC1250
:100030000C9447000C9447000C9447000C94470024
:100040000C9447000C9447000C9447000C94470014
:100050000C94470011241FBECFE5D8E0DEBFCDBF12
:1000600011E0A0E6B0E0E2E3F1E302C005900D92FA
:10007000AC3BB107D9F711E0ACEBB1E001C01D9288
:10008000A23DB107E1F70E94F8140C9497180C9464
:100090000000EF92FF920F931F937B018C0120E0F1
:1000A00030E040E05FE40E94F50388238CF0C80153
:1000B000B70120E030E040E05FE40E94C1010E940F
:1000C000B3049B01AC01205030404040504806C072
:1000D000C801B7010E94B3049B01AC01B901CA0178
:1000E0001F910F91FF90EF900895A0E0B0E0EBE733
:1000F000F0E00C946018DC012B01FA019C91923025
:1001000008F439C1EB018881823008F433C194309E
:1001100069F4843009F02FC111969C91119789815F
:10012000981709F428C1A3EBB0E025C1843009F485
:1001300021C18230A9F4923009F01DC19A01AD01AC
:1001400088E0EA010990AE01E90109929E0181501F
:10015000C1F7E201898111969C918923818308C1AD
:10016000923009F407C112962D903C901397EB0141
:100170008A819B811496AD90BD90CD90DC901797AD
:10018000EC80FD800E811F819101281B390BB90184
:1001900037FF04C066277727621B730B6032710537
:1001A0000CF061C0121613066CF537014801062EDB
:1001B00004C096948794779467940A94D2F721E0C8
:1001C00030E040E050E004C0220F331F441F551FB1
:1001D0006A95D2F721503040404050402E213F21B7
:1001E00040235123211531054105510521F021E01E
:1001F00030E040E050E079018A01E628F72808293C
:1002000019293CC0232BD1F1260E371E350146019A
:10021000062E04C096948794779467940A94D2F734
:1002200021E030E040E050E004C0220F331F441FC3
:10023000551F6A95D2F721503040404050402A2146
:100240003B214C215D21211531054105510521F04E
:1002500021E030E040E050E059016A01A628B728CB
:10026000C828D9280BC0821593052CF01C01AA249C
:10027000BB24650103C0EE24FF24870111969C91E5
:10028000D20111968C91981709F445C0992339F041
:10029000A80197012A193B094C095D0906C0A6016E
:1002A00095012E193F09400B510B57FD08C01182D3
:1002B0003382228224833583468357831DC081E0A5
:1002C00081833382228288279927DC01821B930B4A
:1002D000A40BB50B84839583A683B7830DC0220F2F
:1002E000331F441F551F24833583468357838281E0
:1002F000938101979383828324813581468157813D
:10030000DA01C9010197A109B1098F5F9F4FAF4F72
:10031000BF4328F30BC0918333822282EA0CFB1C7B
:100320000C1D1D1DE482F5820683178383E0808304
:10033000248135814681578157FF1AC0C901AA27F8
:1003400097FDA095BA2F81709070A070B0705695EF
:10035000479537952795822B932BA42BB52B848318
:100360009583A683B7838281938101969383828349
:10037000DF0101C0D201CD01CDB7DEB7E2E10C94BF
:100380007C18A0E2B0E0E7ECF1E00C946C18698313
:100390007A838B839C832D833E834F835887E9E048
:1003A000EE2EF12CEC0EFD1ECE010196B7010E943F
:1003B0002B068E010F5E1F4FCE010596B8010E94DD
:1003C0002B068A8991E089278A8BC701B801AE0183
:1003D000475E5F4F0E9475000E945605A096E6E0BA
:1003E0000C948818A0E2B0E0E8EFF1E00C946C18EF
:1003F00069837A838B839C832D833E834F835887C5
:10040000F9E0EF2EF12CEC0EFD1ECE010196B701A6
:100410000E942B068E010F5E1F4FCE010596B8017C
:100420000E942B06C701B801AE01475E5F4F0E94D4
:1004300075000E945605A096E6E00C948818A0E28C
:10044000B0E0E5E2F2E00C94601869837A838B8374
:100450009C832D833E834F835887CE010196BE0136
:10046000675F7F4F0E942B06CE010596BE016F5E2F
:100470007F4F0E942B069985923088F089898230BF
:10048000C8F0943019F4823051F404C0843029F457
:10049000923081F483EB90E0C6C0923049F420E0C2
:1004A0009A858A89981321E02A87CE010996BBC0D4
:1004B000823049F420E09A858A89981321E02A8BBA
:1004C000CE014196B0C02D843E844F8458886D88FB
:1004D0007E888F88988CEE24FF248701AA24BB2471
:1004E000650140E050E060E070E0E0E0F0E0C10174
:1004F00081709070892BE9F0E60CF71C081D191D1E
:100500009A01AB012A0D3B1D4C1D5D1D80E090E062
:10051000A0E0B0E0E614F7040805190520F481E036
:1005200090E0A0E0B0E0BA01A901480F591F6A1F8E
:100530007B1FAA0CBB1CCC1CDD1C97FE08C081E0F5
:1005400090E0A0E0B0E0A82AB92ACA2ADB2A3196B6
:10055000E032F10549F0660C771C881C991C569412
:10056000479437942794C3CFFA85EA892B893C892D
:100570008B859C85280F391F2E5F3F4F17C0CA01FE
:1005800081709070892B61F016950795F794E79428
:1005900080E090E0A0E0B0E8E82AF92A0A2B1B2BC3
:1005A00076956795579547952F5F3F4F77FDE7CF36
:1005B0000CC0440F551F661F771F17FD4160EE0CDE
:1005C000FF1C001F111F21503040403090E05907A0
:1005D00090E0690790E4790760F32B8F3C8FDB0193
:1005E000CA018F779070A070B07080349105A1051A
:1005F000B10561F447FD0AC0E114F10401051105DC
:1006000029F0405C5F4F6F4F7F4F40781A8EFE1786
:1006100011F081E08A8F4D8F5E8F6F8F78A383E01A
:10062000898FCE0149960E945605A096E2E10C946E
:100630007C18A8E1B0E0EFE1F3E00C94681869835E
:100640007A838B839C832D833E834F835887B9E0C5
:10065000EB2EF12CEC0EFD1ECE010196B7010E948F
:100660002B068E010F5E1F4FCE010596B8010E942A
:100670002B062985223008F47EC03989323010F4E7
:10068000B8017CC08A859A8989278A87243011F02D
:10069000223031F4231709F06EC063EB70E06EC0B6
:1006A000343039F41D861E861F86188A1C861B86E8
:1006B00004C0323021F484E08987B7015FC02B8504
:1006C0003C858B899C89281B390B3C872B87ED84C3
:1006D000FE840F851889AD88BE88CF88D88CEA142F
:1006E000FB040C051D0540F4EE0CFF1C001F111F40
:1006F000215030403C872B8720E030E040E050E044
:1007000080E090E0A0E0B0E460E070E0EA14FB0478
:100710000C051D0540F0282B392B4A2B5B2BEA18C2
:10072000FB080C091D09B695A79597958795EE0CC2
:10073000FF1C001F111F6F5F7F4F6F31710531F775
:10074000DA01C9018F779070A070B0708034910584
:10075000A105B10561F427FD0AC0E114F10401050A
:10076000110529F0205C3F4F4F4F5F4F20782D87B8
:100770003E874F87588BBE01675F7F4FCB010E943A
:1007800056056896EAE00C948418A8E1B0E0EBEC1A
:10079000F3E00C946C1869837A838B839C832D839C
:1007A0003E834F83588789E0E82EF12CEC0EFD1E26
:1007B000CE010196B7010E942B068E010F5E1F4FDE
:1007C000CE010596B8010E942B068985823040F043
:1007D0008989823028F0C701B8010E94A30601C0B0
:1007E0008FEF6896E6E00C948818A8E1B0E0EBEF94
:1007F000F3E00C946C1869837A838B839C832D833C
:100800003E834F83588789E0E82EF12CEC0EFD1EC5
:10081000CE010196B7010E942B068E010F5E1F4F7D
:10082000CE010596B8010E942B068985823040F0E2
:100830008989823028F0C701B8010E94A30601C04F
:100840008FEF6896E6E00C948818A8E1B0E0EBE240
:10085000F4E00C946C1869837A838B839C832D83DA
:100860003E834F83588789E0E82EF12CEC0EFD1E65
:10087000CE010196B7010E942B068E010F5E1F4F1D
:10088000CE010596B8010E942B068985823040F082
:100890008989823028F0C701B8010E94A30601C0EF
:1008A00081E06896E6E00C948818A8E0B0E0EBE5FB
:1008B000F4E00C9469189B01AC0183E08983DA01B0
:1008C000C9018827B7FD83959927AA27BB27B82E8A
:1008D000211531054105510519F482E089833AC09B
:1008E0008823A9F0203080E0380780E0480780E8BE
:1008F000580729F460E070E080E09FEC30C0EE24FF
:10090000FF248701E21AF30A040B150B02C07901D8
:100910008A018EE1C82ED12CDC82CB82ED82FE8250
:100920000F831887C801B7010E94070501971816A1
:10093000190684F4082E04C0EE0CFF1C001F111FC2
:100940000A94D2F7ED82FE820F831887C81AD90A5B
:10095000DC82CB82BA82CE0101960E94560528968F
:10096000E9E00C948518ACE0B0E0E9EBF4E00C941D
:10097000701869837A838B839C83CE010196BE01B4
:100980006B5F7F4F0E942B068D81823061F1823038
:1009900050F1843021F48E81882351F12EC02F81B3
:1009A000388537FD20C06E812F3131051CF066235C
:1009B000F9F023C08EE190E0821B930B29853A85E4
:1009C0004B855C8504C056954795379527958A9544
:1009D000D2F76623B1F050954095309521953F4F61
:1009E0004F4F5F4F0EC020E030E040E050E009C0C4
:1009F0002FEF3FEF4FEF5FE704C020E030E040E033
:100A000050E8B901CA012C96E2E00C948C18EF92E0
:100A1000FF920F931F937B018C0180E0E81680E02A
:100A2000F80681E0080780E0180788F48FEFE816E1
:100A3000F1040105110531F028F088E090E0A0E014
:100A4000B0E017C080E090E0A0E0B0E012C080E02D
:100A5000E81680E0F80680E0080781E0180728F033
:100A600088E190E0A0E0B0E004C080E190E0A0E088
:100A7000B0E020E230E040E050E0281B390B4A0BA8
:100A80005B0B04C016950795F794E7948A95D2F707
:100A9000F701E554FF4F8081281B310941095109B5
:100AA000C9011F910F91FF90EF900895DF92EF928F
:100AB000FF920F931F93FC01E480F580068117815C
:100AC000D1808081823048F480E090E0A0E1B0E005
:100AD000E82AF92A0A2B1B2BA5C0843009F49FC0F1
:100AE000823021F4EE24FF24870105C0E114F104D3
:100AF0000105110519F4E0E0F0E096C06281738110
:100B00009FEF623879070CF05BC022E83FEF261BAD
:100B1000370B2A3131052CF020E030E040E050E086
:100B20002AC0B801A701022E04C076956795579593
:100B300047950A94D2F781E090E0A0E0B0E004C0CD
:100B4000880F991FAA1FBB1F2A95D2F70197A109E9
:100B5000B1098E219F21A023B1230097A105B105E2
:100B600021F081E090E0A0E0B0E09A01AB01282BF9
:100B7000392B4A2B5B2BDA01C9018F779070A0705B
:100B8000B07080349105A105B10539F427FF09C083
:100B9000205C3F4F4F4F5F4F04C0215C3F4F4F4F92
:100BA0005F4FE0E0F0E02030A0E03A07A0E04A0725
:100BB000A0E45A0710F0E1E0F0E079018A0127C0D3
:100BC0006038710564F5FB01E158FF4FD801C7019A
:100BD0008F779070A070B07080349105A105B10539
:100BE00039F4E7FE0DC080E490E0A0E0B0E004C07E
:100BF0008FE390E0A0E0B0E0E80EF91E0A1F1B1F93
:100C000017FF05C016950795F794E794319687E08E
:100C100016950795F794E7948A95D1F705C0EE24C9
:100C2000FF248701EFEFF0E06E2F67956627679549
:100C3000902F9F77D794DD24D7948E2F8695492FB8
:100C4000462B582F5D29B701CA011F910F91FF90C4
:100C5000EF90DF900895FC01DB01408151812281FA
:100C6000622F6F7770E0221F2227221F9381892F26
:100C7000880F822B282F30E0991F9927991F1196F2
:100C80009C93119721153105A9F541155105610571
:100C9000710511F482E037C082E89FEF13969C93B0
:100CA0008E9312979A01AB0167E0220F331F441F06
:100CB000551F6A95D1F783E08C930DC0220F331F27
:100CC000441F551F12968D919C911397019713966F
:100CD0009C938E931297203080E0380780E048077D
:100CE00080E4580758F314962D933D934D935C93ED
:100CF000179708952F3F310579F441155105610586
:100D0000710519F484E08C93089564FF03C081E0B9
:100D10008C9312C01C9210C02F57304013963C93F6
:100D20002E93129783E08C9387E0440F551F661F24
:100D3000771F8A95D1F7706414964D935D936D93E8
:100D40007C93179708951F93DC01FB019C919230CF
:100D500008F447C08081823008F443C0943051F4D5
:100D600011961C91843099F58181682F70E0611B88
:100D700071093FC0843021F0923031F48230B9F1F2
:100D80008181882389F12DC011961C9111978230A1
:100D9000F1F081811817D9F412962D913C91139797
:100DA000828193818217930794F028173907BCF04A
:100DB00014968D919D910D90BC91A02D248135812B
:100DC00046815781281739074A075B0718F4112312
:100DD00041F00AC082179307A407B50740F4112316
:100DE00019F061E070E005C06FEF7FEF02C060E0D6
:100DF00070E0CB011F910895DF93CF930F92CDB791
:100E0000DEB78983A6E2B0E0E6E2F0E080818068A8
:100E10008C93A7E2B0E0E7E2F0E0808180648C93FD
:100E2000A7E2B0E0E7E2F0E080818F778C93A7E261
:100E3000B0E0E7E2F0E080818F7D8C93A6E2B0E045
:100E4000E6E2F0E08081887F8C93A6E2B0E0E6E203
:100E5000F0E090818981892B8C930F90CF91DF9165
:100E60000895DF93CF930F92CDB7DEB78983A7E2C2
:100E7000B0E0E7E2F0E08081807E8C93A7E2B0E012
:100E8000E7E2F0E090818981892B8C93A6E2B0E0C3
:100E9000E6E2F0E0808180648C93E6E2F0E080811D
:100EA00082958F70882F90E0817090700097A9F3E1
:100EB000A6E2B0E0E6E2F0E080818F7E8C93E4E28F
:100EC000F0E0808191810F90CF91DF910895DF93C1
:100ED000CF93CDB7DEB7A6E2B0E0E6E2F0E08081E6
:100EE0008F778C93CF91DF910895DF93CF93CDB718
:100EF000DEB727970FB6F894DEBF0FBECDBF89834C
:100F00006A834B838A81883008F0EAC08B81813004
:100F100009F06FC08981282F30E03F832E838E81B6
:100F20009F818130910549F12E813F812230310529
:100F30002CF48E819F81009761F0D2C02E813F8179
:100F40002230310571F18E819F8183309105E9F165
:100F5000C7C0AAE3B0E0EAE3F0E08081482F8A81CD
:100F6000282F30E081E090E0022E02C0880F991F08
:100F70000A94E2F7842B8C93B3C0A7E3B0E0E7E3D5
:100F8000F0E08081482F8A81282F30E081E090E0D6
:100F9000022E02C0880F991F0A94E2F7842B8C93CB
:100FA0009FC0A4E3B0E0E4E3F0E08081482F8A81B1
:100FB000282F30E081E090E0022E02C0880F991FB8
:100FC0000A94E2F7842B8C938BC0A1E3B0E0E1E3B9
:100FD000F0E08081482F8A81282F30E081E090E086
:100FE000022E02C0880F991F0A94E2F7842B8C937B
:100FF00077C08B81882309F073C08981282F30E066
:101000003D832C838C819D818130910559F12C8108
:101010003D81223031052CF48C819D81009769F04F
:101020005FC02C813D812230310589F18C819D8109
:101030008330910509F440C053C0AAE3B0E0EAE36D
:10104000F0E08081482F8A81282F30E081E090E015
:10105000022E02C0880F991F0A94E2F7809584231C
:101060008C933EC0A7E3B0E0E7E3F0E08081482F37
:101070008A81282F30E081E090E0022E02C0880FA4
:10108000991F0A94E2F7809584238C9329C0A4E3E6
:10109000B0E0E4E3F0E08081482F8A81282F30E03F
:1010A00081E090E0022E02C0880F991F0A94E2F7B7
:1010B000809584238C9314C0A1E3B0E0E1E3F0E0D9
:1010C0008081482F8A81282F30E081E090E0022E35
:1010D00002C0880F991F0A94E2F7809584238C93AD
:1010E00027960FB6F894DEBF0FBECDBFCF91DF912C
:1010F0000895DF93CF93CDB7DEB727970FB6F89457
:10110000DEBF0FBECDBF89836A834B838A8188305F
:1011100008F0EAC08B81813009F06FC08981282FE7
:1011200030E03F832E838E819F818130910549F18C
:101130002E813F81223031052CF48E819F810097D2
:1011400061F0D2C02E813F812230310571F18E8154
:101150009F8183309105E9F1C7C0ABE3B0E0EBE3D9
:10116000F0E08081482F8A81282F30E081E090E0F4
:10117000022E02C0880F991F0A94E2F7842B8C93E9
:10118000B3C0A8E3B0E0E8E3F0E08081482F8A81B3
:10119000282F30E081E090E0022E02C0880F991FD6
:1011A0000A94E2F7842B8C939FC0A5E3B0E0E5E3BB
:1011B000F0E08081482F8A81282F30E081E090E0A4
:1011C000022E02C0880F991F0A94E2F7842B8C9399
:1011D0008BC0A2E3B0E0E2E3F0E08081482F8A8197
:1011E000282F30E081E090E0022E02C0880F991F86
:1011F0000A94E2F7842B8C9377C08B81882309F0C3
:1012000073C08981282F30E03D832C838C819D81A0
:101210008130910559F12C813D81223031052CF42A
:101220008C819D81009769F05FC02C813D812230C7
:10123000310589F18C819D818330910509F440C08D
:1012400053C0ABE3B0E0EBE3F0E08081482F8A814C
:10125000282F30E081E090E0022E02C0880F991F15
:101260000A94E2F7809584238C933EC0A8E3B0E013
:10127000E8E3F0E08081482F8A81282F30E081E088
:1012800090E0022E02C0880F991F0A94E2F7809521
:1012900084238C9329C0A5E3B0E0E5E3F0E08081EE
:1012A000482F8A81282F30E081E090E0022E02C092
:1012B000880F991F0A94E2F7809584238C9314C0B9
:1012C000A2E3B0E0E2E3F0E08081482F8A81282F9A
:1012D00030E081E090E0022E02C0880F991F0A944E
:1012E000E2F7809584238C9327960FB6F894DEBF9F
:1012F0000FBECDBFCF91DF910895DF93CF9300D084
:1013000000D000D0CDB7DEB789836A838A81883068
:1013100008F06FC08981282F30E03D832C834C81F9
:101320005D814130510549F18C819D81823091056B
:1013300034F42C813D812115310561F057C04C8179
:101340005D814230510561F18C819D818330910531
:10135000D1F14CC0E9E3F0E08081282F30E08A81B0
:10136000882F90E0A90102C0559547958A95E2F72C
:10137000CA01582F51705B833DC0E6E3F0E08081E5
:10138000282F30E08A81882F90E0A90102C055956E
:1013900047958A95E2F7CA01582F51705B832AC09E
:1013A000E3E3F0E08081282F30E08A81882F90E00D
:1013B000A90102C0559547958A95E2F7CA01582FB1
:1013C00051705B8317C0E0E3F0E08081282F30E0AC
:1013D0008A81882F90E0A90102C0559547958A958A
:1013E000E2F7CA01582F51705B8304C08FEF8B83E3
:1013F00001C002C09B819E838E8126960FB6F89411
:10140000DEBF0FBECDBFCF91DF910895DF93CF93A5
:1014100000D000D0CDB7DEB789836A838981282FB9
:1014200030E03C832B838B819C8181309105D1F00E
:101430002B813C81223031052CF48B819C810097DB
:1014400061F01EC02B813C812230310581F08B81FF
:101450009C818330910581F013C0EAE3F0E08A813A
:1014600080830EC0E7E3F0E08A81808309C0E4E373
:10147000F0E08A81808304C0E1E3F0E08A81808328
:101480000F900F900F900F90CF91DF910895DF9301
:10149000CF9300D000D0CDB7DEB789836A8389812E
:1014A000282F30E03C832B838B819C8181309105F8
:1014B000D1F02B813C81223031052CF48B819C8131
:1014C000009761F01EC02B813C812230310581F0F4
:1014D0008B819C818330910581F013C0EBE3F0E0B8
:1014E0008A8180830EC0E8E3F0E08A81808309C0AE
:1014F000E5E3F0E08A81808304C0E2E3F0E08A81E2
:1015000080830F900F900F900F90CF91DF910895EF
:10151000DF93CF9300D0CDB7DEB789836A830F9076
:101520000F90CF91DF910895DF93CF93CDB7DEB7C2
:10153000AFE5B0E0EFE5F0E0808180688C93CF917B
:10154000DF910895DF93CF93CDB7DEB7AFE5B0E07D
:10155000EFE5F0E080818F778C93CF91DF91089554
:101560000F931F93DF93CF93CDB7DEB7CC54D0400A
:101570000FB6F894DEBF0FBECDBF82E06FEF0E94C2
:10158000060A81E060E041E00E94750781E061E0C9
:1015900041E00E94750781E062E041E00E9475072A
:1015A000FE01E75BFF4F80E090E0ACE0B2E48083B7
:1015B0009183A283B3838E010B5B1F4FFE01E75B18
:1015C000FF4F608171818281938120E030E04AEF9A
:1015D00054E40E941F02DC01CB01F8018083918357
:1015E000A283B383FE01EB5BFF4F60817181828137
:1015F000938120E030E040E85FE30E9425048823E7
:1016000044F4FE01ED5BFF4F81E090E09183808325
:1016100064C0FE01EB5BFF4F608171818281938129
:1016200020E03FEF4FE757E40E94C50318160CF087
:1016300043C0FE01E75BFF4F60817181828193812E
:1016400020E030E040E251E40E941F02DC01CB01C7
:101650008E010D5B1F4FBC01CD010E944900DC01D2
:10166000CB01F801918380831FC0FE01EF5BFF4F28
:1016700088EC90E091838083FE01EF5BFF4F8081D7
:1016800091810197F1F7FE01EF5BFF4F918380831A
:10169000DE01AD5BBF4FFE01ED5BFF4F80819181AD
:1016A000019711969C938E93FE01ED5BFF4F808115
:1016B00091810097D1F624C08E010D5B1F4FFE0172
:1016C000EB5BFF4F60817181828193810E944900B1
:1016D000DC01CB01F80191838083FE01ED5BFF4FBC
:1016E00080819181FE01FF9691838083FE01FF96A8
:1016F000808191810197F1F7FE01FF9691838083AC
:1017000088E30E94830D80E090E0A8E4B2E48BAF10
:101710009CAFADAFBEAF6BAD7CAD8DAD9EAD2BEADA
:101720003AEA4AE250E40E941F02DC01CB018FAB8F
:1017300098AFA9AFBAAF6FA978AD89AD9AAD20E0E7
:1017400030E040E85FE30E94250488231CF481E038
:101750008EAB91C06FA978AD89AD9AAD20E030E035
:101760004FE753E40E94C50318160CF07BC06BAD25
:101770007CAD8DAD9EAD20E030E04AE754E40E94A0
:101780001903DC01CB018AAB9BABACABBDAB6AA947
:101790007BA98CA99DA920E030E04AEF54E40E9487
:1017A0001F02DC01CB018EA79FA7A8ABB9AB6EA52A
:1017B0007FA588A999A920E030E040E85FE30E9476
:1017C000250488232CF481E090E09DA78CA73FC0DE
:1017D0006EA57FA588A999A920E03FEF4FE757E4C0
:1017E0000E94C50318164CF56AA97BA98CA99DA96E
:1017F00020E030E040E251E40E941F02DC01CB0116
:10180000BC01CD010E944900DC01CB019DA78CA742
:101810000FC088EC90E09BA78AA78AA59BA501979B
:10182000F1F79BA78AA78CA59DA501979DA78CA7DB
:101830008CA59DA5009769F724C06EA57FA588A9F2
:1018400099A90E944900DC01CB019DA78CA78CA51A
:101850009DA599A788A788A599A50197F1F799A7AC
:1018600088A70FC06FA978AD89AD9AAD0E944900D5
:10187000DC01CB018EAB8EA98FA38FA18A95F1F7E6
:101880008FA38FE00E94830D80E090E0A8E4B2E493
:101890008BA39CA3ADA3BEA36BA17CA18DA19EA194
:1018A0002BEA3AEA4AE250E40E941F02DC01CB0133
:1018B0008F8F98A3A9A3BAA36F8D78A189A19AA1AC
:1018C00020E030E040E85FE30E94250488231CF418
:1018D00081E08E8F91C06F8D78A189A19AA120E0BF
:1018E00030E04FE753E40E94C50318160CF07BC0AC
:1018F0006BA17CA18DA19EA120E030E04AE754E4D9
:101900000E941903DC01CB018A8F9B8FAC8FBD8FA6
:101910006A8D7B8D8C8D9D8D20E030E04AEF54E404
:101920000E941F02DC01CB018E8B9F8BA88FB98F89
:101930006E897F89888D998D20E030E040E85FE3F3
:101940000E94250488232CF481E090E09D8B8C8BF1
:101950003FC06E897F89888D998D20E03FEF4FE7EA
:1019600057E40E94C50318164CF56A8D7B8D8C8D4B
:101970009D8D20E030E040E251E40E941F02DC0136
:10198000CB01BC01CD010E944900DC01CB019D8B44
:101990008C8B0FC088EC90E09B8B8A8B8A899B890B
:1019A0000197F1F79B8B8A8B8C899D8901979D8B81
:1019B0008C8B8C899D89009769F724C06E897F89FB
:1019C000888D998D0E944900DC01CB019D8B8C8B09
:1019D0008C899D89998B888B888999890197F1F7E2
:1019E000998B888B0FC06F8D78A189A19AA10E94D5
:1019F0004900DC01CB018E8F8E8D8F878F858A9574
:101A0000F1F78F8781E00E94830D80E090E0A0E0F5
:101A1000B0E48B879C87AD87BE876B857C858D8581
:101A20009E8520E030E04AEF54E40E941F02DC0172
:101A3000CB018F839887A987BA876F81788589853D
:101A40009A8520E030E040E85FE30E942504882387
:101A50002CF481E090E09E838D833FC06F81788578
:101A600089859A8520E03FEF4FE757E40E94C50340
:101A700018164CF56B857C858D859E8520E030E0C1
:101A800040E251E40E941F02DC01CB01BC01CD0108
:101A90000E944900DC01CB019E838D830FC088EC3E
:101AA00090E09C838B838B819C810197F1F79C83D1
:101AB0008B838D819E8101979E838D838D819E81F5
:101AC000009769F714C06F81788589859A850E948F
:101AD0004900DC01CB019E838D838D819E819A8399
:101AE000898389819A810197F1F79A838983C45BFD
:101AF000DF4F0FB6F894DEBF0FBECDBFCF91DF91A1
:101B00001F910F910895DF93CF93CDB7DEB76997FB
:101B10000FB6F894DEBF0FBECDBF898F81E060E0C5
:101B200040E00E94790881E061E040E00E9479088D
:101B300082E0698D0E94470A81E062E041E00E94F4
:101B4000790880E090E0A0E8BFE38D8B9E8BAF8B9F
:101B5000B88F6D897E898F89988D2BEA3AEA4AE29F
:101B600050E40E941F02DC01CB01898B9A8BAB8B66
:101B7000BC8B69897A898B899C8920E030E040E8B8
:101B80005FE30E94250488231CF481E0888B91C0C8
:101B900069897A898B899C8920E030E04FE753E49A
:101BA0000E94C50318160CF07BC06D897E898F8951
:101BB000988D20E030E04AE754E40E941903DC01EC
:101BC000CB018C879D87AE87BF876C857D858E8591
:101BD0009F8520E030E04AEF54E40E941F02DC01C0
:101BE000CB0188879987AA87BB87688579858A858D
:101BF0009B8520E030E040E85FE30E9425048823D5
:101C00002CF481E090E09F838E833FC068857985C6
:101C10008A859B8520E03FEF4FE757E40E94C5038C
:101C200018164CF56C857D858E859F8520E030E00B
:101C300040E251E40E941F02DC01CB01BC01CD0156
:101C40000E944900DC01CB019F838E830FC088EC8A
:101C500090E09D838C838C819D810197F1F79D831A
:101C60008C838E819F8101979F838E838E819F813C
:101C7000009769F724C0688579858A859B850E94CD
:101C80004900DC01CB019F838E838E819F819B83E2
:101C90008A838A819B810197F1F79B838A830FC096
:101CA00069897A898B899C890E944900DC01CB0172
:101CB000888B8889898389818A95F1F7898381E076
:101CC00062E040E00E94790869960FB6F894DEBFA2
:101CD0000FBECDBFCF91DF910895DF93CF93CDB7E6
:101CE000DEB769970FB6F894DEBF0FBECDBF898F00
:101CF00081E060E041E00E94790881E061E040E03D
:101D00000E94790882E0698D0E94470A81E062E0C2
:101D100041E00E94790880E090E0A0E8BFE38D8B6D
:101D20009E8BAF8BB88F6D897E898F89988D2BEABA
:101D30003AEA4AE250E40E941F02DC01CB01898B9F
:101D40009A8BAB8BBC8B69897A898B899C8920E0C3
:101D500030E040E85FE30E94250488231CF481E022
:101D6000888B91C069897A898B899C8920E030E0D1
:101D70004FE753E40E94C50318160CF07BC06D8931
:101D80007E898F89988D20E030E04AE754E40E94F4
:101D90001903DC01CB018C879D87AE87BF876C85DB
:101DA0007D858E859F8520E030E04AEF54E40E94D7
:101DB0001F02DC01CB0188879987AA87BB876885CA
:101DC00079858A859B8520E030E040E85FE30E94CA
:101DD000250488232CF481E090E09F838E833FC00C
:101DE000688579858A859B8520E03FEF4FE757E43A
:101DF0000E94C50318164CF56C857D858E859F85E0
:101E000020E030E040E251E40E941F02DC01CB01FF
:101E1000BC01CD010E944900DC01CB019F838E8370
:101E20000FC088EC90E09D838C838C819D8101970D
:101E3000F1F79D838C838E819F8101979F838E8391
:101E40008E819F81009769F724C0688579858A858E
:101E50009B850E944900DC01CB019F838E838E818C
:101E60009F819B838A838A819B810197F1F79B8362
:101E70008A830FC069897A898B899C890E9449006D
:101E8000DC01CB01888B8889898389818A95F1F768
:101E9000898381E062E040E00E94790869960FB68C
:101EA000F894DEBF0FBECDBFCF91DF910895DF93D1
:101EB000CF9300D00F92CDB7DEB79B838A83198270
:101EC0000EC08981282F30E08A819B81FC01E20FBE
:101ED000F31F80810E946D0E89818F5F89838981C4
:101EE000282F30E08A819B81FC01E20FF31F808163
:101EF000882339F70F900F900F90CF91DF910895BD
:101F0000DF93CF9300D000D0CDB7DEB789836A834B
:101F10008981282F30E03C832B838B819C81813009
:101F2000910531F02B813C812230310531F009C01F
:101F30008A8180580E94830D04C08A8180540E9447
:101F4000830D0F900F900F900F90CF91DF91089518
:101F50000F931F93DF93CF93CDB7DEB760970FB684
:101F6000F894DEBF0FBECDBF6D877E878F87988BBD
:101F700089E089838D859E85AF85B8890097A10505
:101F8000B10521F480E30E946D0E44C01C862EC072
:101F90008981082F10E08D859E85AF85B8892AE05C
:101FA00030E040E050E0BC01CD010E943E18DC0171
:101FB000CB01282F205DCE010296FC01E00FF11F1E
:101FC00020838D859E85AF85B8892AE030E040E08A
:101FD00050E0BC01CD010E943E18DA01C9018D8795
:101FE0009E87AF87B88B8981815089838D859E8537
:101FF000AF85B8890097A105B10551F68981882F71
:1020000090E09C012F5F3F4FCE010296820F931FFD
:102010000E94570F60960FB6F894DEBF0FBECDBF7B
:10202000CF91DF911F910F910895DF93CF93CDB79B
:10203000DEB76C970FB6F894DEBF0FBECDBF8A8FA8
:102040007C8F6B8F8A8D882F90E00896880F991F60
:10205000880F991F880F991F0E94830D80E090E0E0
:10206000A0E2B2E48D8B9E8BAF8BB88F6D897E8999
:102070008F89988D2BEA3AEA4AE250E40E941F02C7
:10208000DC01CB01898B9A8BAB8BBC8B69897A89FC
:102090008B899C8920E030E040E85FE30E942504C2
:1020A00088231CF481E0888B91C069897A898B89A7
:1020B0009C8920E030E04FE753E40E94C5031816E6
:1020C0000CF07BC06D897E898F89988D20E030E08F
:1020D0004AE754E40E941903DC01CB018C879D87F9
:1020E000AE87BF876C857D858E859F8520E030E03B
:1020F0004AEF54E40E941F02DC01CB0188879987D4
:10210000AA87BB87688579858A859B8520E030E032
:1021100040E85FE30E94250488232CF481E090E0EE
:102120009F838E833FC0688579858A859B8520E063
:102130003FEF4FE757E40E94C50318164CF56C8536
:102140007D858E859F8520E030E040E251E40E944D
:102150001F02DC01CB01BC01CD010E944900DC0162
:10216000CB019F838E830FC088EC90E09D838C838E
:102170008C819D810197F1F79D838C838E819F8156
:1021800001979F838E838E819F81009769F724C07A
:10219000688579858A859B850E944900DC01CB0191
:1021A0009F838E838E819F819B838A838A819B817B
:1021B0000197F1F79B838A830FC069897A898B899C
:1021C0009C890E944900DC01CB01888B8889898326
:1021D00089818A95F1F78983198E0EC0898D282F00
:1021E00030E08B8D9C8DFC01E20FF31F80810E94FB
:1021F0006D0E898D8F5F898F898D883078F36C960D
:102200000FB6F894DEBF0FBECDBFCF91DF9108951A
:10221000DF93CF930F92CDB7DEB7898389810E9478
:102220006D0E0F90CF91DF910895DF93CF93CDB7CF
:10223000DEB7A3E5B0E0E3E5F0E0808180648C9355
:10224000A3E5B0E0E3E5F0E0808188608C93CF9176
:10225000DF910895DF93CF930F92CDB7DEB78983D7
:10226000E2E5F0E0898180830F90CF91DF910895BE
:10227000DF93CF930F92CDB7DEB78983A3E5B0E0AC
:10228000E3E5F0E08081887F8C93A3E5B0E0E3E5AF
:10229000F0E090818981892B8C930F90CF91DF9111
:1022A0000895DF93CF930F92CDB7DEB789838981ED
:1022B000813041F4A9E5B0E0E9E5F0E0808181609A
:1022C0008C9307C0A9E5B0E0E9E5F0E080818E7F5E
:1022D0008C930F90CF91DF910895DF93CF9300D02F
:1022E00000D0CDB7DEB789836A838A81282F30E09A
:1022F0003C832B838B819C8182309105C9F02B819B
:102300003C812330310519F18B819C81813091050D
:1023100069F5A3E5B0E0E3E5F0E0808180618C93AE
:10232000A3E5B0E0E3E5F0E080818F7D8C932CC0E5
:10233000A3E5B0E0E3E5F0E0808180628C93A3E563
:10234000B0E0E3E5F0E080818F7E8C931DC0A3E5D3
:10235000B0E0E3E5F0E0808180618C93A3E5B0E03C
:10236000E3E5F0E0808180628C930EC0A3E5B0E0ED
:10237000E3E5F0E080818F7E8C93A3E5B0E0E3E5B8
:10238000F0E080818F7D8C93ECE5F0E089818083A3
:102390000F900F900F900F90CF91DF9108950F93B2
:1023A0001F93DF93CF9300D0CDB7DEB789836A83C5
:1023B0008A81813009F044C0A3E5B0E0E3E5F0E0B4
:1023C000808180618C93A3E5B0E0E3E5F0E080815B
:1023D00080628C930CE510E08981882F90E0AA2719
:1023E00097FDA095BA2FBC01CD010E945504DC01D8
:1023F000CB01BC01CD0120E030E048EC52E40E946A
:102400001903DC01CB01BC01CD0120E030E040E844
:1024100053EC0E941F02DC01CB01BC01CD0120E086
:1024200030E040E853E40E94F201DC01CB01BC0142
:10243000CD010E944900DC01CB01F801808339C045
:10244000A3E5B0E0E3E5F0E0808180628C93A3E552
:10245000B0E0E3E5F0E080818F7E8C930CE510E046
:102460008981882F90E0AA2797FDA095BA2FBC01FB
:10247000CD010E945504DC01CB01BC01CD0120E05F
:1024800030E048EC52E40E941903DC01CB01BC01AE
:10249000CD0120E030E040E853E40E941F02DC015F
:1024A000CB01BC01CD010E944900DC01CB01F80148
:1024B00080830F900F90CF91DF911F910F9108951E
:1024C000DF93CF930F92CDB7DEB78983ECE5F0E0D1
:1024D000898180830F90CF91DF910895DF93CF930F
:1024E0000F92CDB7DEB789838981813041F4A9E5A8
:1024F000B0E0E9E5F0E0808182608C9307C0A9E557
:10250000B0E0E9E5F0E080818D7F8C930F90CF9172
:10251000DF910895DF93CF93CDB7DEB7A3E5B0E0A9
:10252000E3E5F0E08081887F8C93CF91DF9108957F
:10253000DF93CF9300D0CDB7DEB79A8389838981AB
:102540009A819093C5018093C4010F900F90CF9111
:10255000DF910895DF93CF9300D0CDB7DEB79A8394
:10256000898389819A819093C3018093C2010F90DE
:102570000F90CF91DF9108951F920F920FB60F9297
:1025800011242F933F934F935F936F937F938F9378
:102590009F93AF93BF93EF93FF93DF93CF93CDB709
:1025A000DEB7E091C401F091C5010995CF91DF91AB
:1025B000FF91EF91BF91AF919F918F917F916F911B
:1025C0005F914F913F912F910F900FBE0F901F90F1
:1025D00018951F920F920FB60F9211242F933F93CD
:1025E0004F935F936F937F938F939F93AF93BF931B
:1025F000EF93FF93DF93CF93CDB7DEB7E091C201A6
:10260000F091C3010995CF91DF91FF91EF91BF91B7
:10261000AF919F918F917F916F915F914F913F917A
:102620002F910F900FBE0F901F901895DF93CF93AF
:1026300000D0CDB7DEB79A83898389819A81909340
:10264000BD018093BC010F900F90CF91DF91089551
:10265000DF93CF93CDB7DEB7AEE4B0E0EEE4F0E0C9
:1026600080818E7F8C93AEE4B0E0EEE4F0E0808178
:1026700082608C93AEE4B0E0EEE4F0E080818B7F8A
:102680008C93AFE4B0E0EFE4F0E080818F7E8C9338
:10269000AFE4B0E0EFE4F0E080818F7B8C93AFE4B7
:1026A000B0E0EFE4F0E0808180628C93AFE4B0E0D2
:1026B000EFE4F0E0808180688C93AFE4B0E0EFE479
:1026C000F0E080818E7F8C93AFE4B0E0EFE4F0E047
:1026D000808182608C93AEE4B0E0EEE4F0E0808133
:1026E00088608C93AEE4B0E0EEE4F0E0808180613D
:1026F0008C93E6E4F0E080E29EE491838083CF91C6
:10270000DF910895DF93CF9300D0CDB7DEB79A83E2
:102710008983EAE4F0E089819A81918380830F9034
:102720000F90CF91DF910895DF93CF9300D0CDB775
:10273000DEB79A838983ECE4F0E089819A81918302
:1027400080830F900F90CF91DF910895DF93CF9307
:10275000CDB7DEB7E6E4F0E080819181CF91DF91E3
:102760000895DF93CF9300D000D0CDB7DEB79A8322
:10277000898389819A819C838B838B819C8100973B
:1027800031F08B819C818130910549F00FC0AEE41E
:10279000B0E0EEE4F0E0808180648C9307C0AEE4AA
:1027A000B0E0EEE4F0E080818F7B8C930F900F908F
:1027B0000F900F90CF91DF9108951F920F920FB657
:1027C0000F9211242F933F934F935F936F937F93B7
:1027D0008F939F93AF93BF93EF93FF93DF93CF9329
:1027E000CDB7DEB78091BC019091BD01009729F073
:1027F000E091BC01F091BD010995CF91DF91FF916E
:10280000EF91BF91AF919F918F917F916F915F9168
:102810004F913F912F910F900FBE0F901F901895E1
:102820001F920F920FB60F9211242F933F934F9345
:102830005F936F937F938F939F93AF93BF93EF9328
:10284000FF93DF93CF93CDB7DEB78091BC0190911A
:10285000BD01009729F0E091BC01F091BD010995FF
:10286000CF91DF91FF91EF91BF91AF919F918F91A8
:102870007F916F915F914F913F912F910F900FBE7C
:102880000F901F9018951F920F920FB60F92112460
:102890002F933F934F935F936F937F938F939F9368
:1028A000AF93BF93EF93FF93DF93CF93CDB7DEB793
:1028B0008091BC019091BD01009729F0E091BC018D
:1028C000F091BD010995CF91DF91FF91EF91BF91FB
:1028D000AF919F918F917F916F915F914F913F91B8
:1028E0002F910F900FBE0F901F901895DF93CF93ED
:1028F00000D00F92CDB7DEB783E390E09B838A834D
:1029000080E88983E9E2F0E08A818083E0E4F0E016
:102910008A819B81892F99278083ABE2B0E0EBE22B
:10292000F0E080818D7F8C93ABE2B0E0EBE2F0E0F1
:1029300080818E7F8C93AAE2B0E0EAE2F0E08081B1
:1029400080618C93AAE2B0E0EAE2F0E080818860E6
:102950008C93AAE2B0E0EAE2F0E080818B7F8C9376
:1029600089818460898389818260898389818F7B61
:10297000898389818F7E898389818F7D89838981FC
:102980008860898389818E7F8983E0E4F0E0898192
:1029900080830F900F900F90CF91DF910895DF9378
:1029A000CF930F92CDB7DEB78983EBE2F0E0808161
:1029B000829586958770882F90E08170907000973F
:1029C000A1F3ECE2F0E0898180830F90CF91DF9159
:1029D0000895DF93CF93CDB7DEB7EBE2F0E08081CF
:1029E0008823DCF7ECE2F0E08081CF91DF9108955D
:1029F000DF93CF93CDB7DEB72E970FB6F894DEBF37
:102A00000FBECDBF0E94B00A86E00E94FC0682E0A5
:102A10000E9438110E94151181E063E041E00E949C
:102A2000750783E065E041E00E9475070E94281366
:102A30000E94761481E065E041E00E94750783E022
:102A400063E041E00E94750783E067E041E00E9497
:102A5000750783E066E041E00E94750780E090E042
:102A6000AAEFB3E48B879C87AD87BE876B857C8597
:102A70008D859E8520E030E04AEF54E40E941F02DD
:102A8000DC01CB018F839887A987BA876F8178850E
:102A900089859A8520E030E040E85FE30E942504C4
:102AA00088232CF481E090E09E838D833FC06F816A
:102AB000788589859A8520E03FEF4FE757E40E94AB
:102AC000C50318164CF56B857C858D859E8520E0A9
:102AD00030E040E251E40E941F02DC01CB01BC0166
:102AE000CD010E944900DC01CB019E838D830FC084
:102AF00088EC90E09C838B838B819C810197F1F71C
:102B00009C838B838D819E8101979E838D838D8194
:102B10009E81009769F714C06F81788589859A85B1
:102B20000E944900DC01CB019E838D838D819E81B3
:102B30009A83898389819A810197F1F79A8389839E
:102B40000E94E9148093C0018091C001813431F466
:102B50000E94B71581E08093C101F6CF8091C10139
:102B6000882391F70E94E9148093C001EDCFDF9391
:102B7000CF93CDB7DEB76C970FB6F894DEBF0FBE1C
:102B8000CDBF80E00E9431079093BF018093BE01CA
:102B90008091BE019091BF01CC01A0E0B0E028E897
:102BA00033E140E050E0BC01CD010E941F18DC0180
:102BB000CB0126EF37E240E050E0BC01CD010E949E
:102BC0003E18DA01C9019093BF018093BE0181E0F4
:102BD0000E94830D80E090E0A0E0B0E4898F9A8F9E
:102BE000AB8FBC8F698D7A8D8B8D9C8D20E030E012
:102BF0004AEF54E40E941F02DC01CB018D8B9E8BB7
:102C0000AF8BB88F6D897E898F89988D20E030E0F9
:102C100040E85FE30E94250488232CF481E090E0E3
:102C20009C8B8B8B3FC06D897E898F89988D20E02E
:102C30003FEF4FE757E40E94C50318164CF5698D26
:102C40007A8D8B8D9C8D20E030E040E251E40E9433
:102C50001F02DC01CB01BC01CD010E944900DC0157
:102C6000CB019C8B8B8B0FC088EC90E09A8B898B6F
:102C700089899A890197F1F79A8B898B8B899C892D
:102C800001979C8B8B8B8B899C89009769F714C06B
:102C90006D897E898F89988D0E944900DC01CB0166
:102CA0009C8B8B8B8B899C89988B8F878F85988940
:102CB0000197F1F7988B8F8780E690E00E94570F7D
:102CC0008091BE019091BF01CC01A0E0B0E0BC01B9
:102CD000CD010E94A80F88E690E00E94570F8091D6
:102CE000BE019091BF0184319105C8F08091BE0171
:102CF0009091BF018A31910590F482E362E00E94D5
:102D0000CF1182E060E00E94800F8AE690E00E948E
:102D1000570F81E065E040E00E9479086AC0809129
:102D2000BE019091BF018A319105C8F08091BE012A
:102D30009091BF018F31910590F48BE462E00E9485
:102D4000CF1182E060E00E94800F8BE790E00E944C
:102D5000570F81E065E040E00E9479084AC0809109
:102D6000BE019091BF018F319105C8F08091BE01E5
:102D70009091BF018E32910590F484E662E00E944A
:102D8000CF1182E060E00E94800F8BE890E00E940B
:102D9000570F81E065E040E00E9479082AC08091E9
:102DA000BE019091BF018E32910590F080E062E00B
:102DB0000E94CF1182E060E00E94800F8CE990E0D9
:102DC0000E94570F81E065E041E00E94790811C040
:102DD00080E062E00E94CF1182E060E00E94800FFC
:102DE0008BEA90E00E94570F81E065E040E00E948E
:102DF000790880E090E0AAEFB3E48B879C87AD87E9
:102E0000BE876B857C858D859E8520E030E04AEF0E
:102E100054E40E941F02DC01CB018F839887A987AD
:102E2000BA876F81788589859A8520E030E040E80F
:102E30005FE30E94250488232CF481E090E09E83C8
:102E40008D833FC06F81788589859A8520E03FEF2B
:102E50004FE757E40E94C50318164CF56B857C8537
:102E60008D859E8520E030E040E251E40E941F0203
:102E7000DC01CB01BC01CD010E944900DC01CB018A
:102E80009E838D830FC088EC90E09C838B838B8125
:102E90009C810197F1F79C838B838D819E810197A3
:102EA0009E838D838D819E81009769F714C06F8109
:102EB000788589859A850E944900DC01CB019E8333
:102EC0008D838D819E819A83898389819A810197DF
:102ED000F1F79A83898382E00E9431079093C701BA
:102EE0008093C6018091C6019091C701CC01A0E0FA
:102EF000B0E028E833E140E050E0BC01CD010E94A1
:102F00001F18DC01CB012FEF33E040E050E0BC01A3
:102F1000CD010E943E18DA01C9019093C701809348
:102F2000C6018091C6019091C70129E0843C9207B7
:102F300030F483E063E041E00E94790805C083E05B
:102F400063E040E00E94790883E00E94310790939B
:102F5000C9018093C8018091C8019091C901CC0139
:102F6000A0E0B0E028E833E140E050E0BC01CD0152
:102F70000E941F18DC01CB012FEF33E040E050E04E
:102F8000BC01CD010E943E18DA01C9019093C9012C
:102F90008093C8018091C8019091C90129E0843CC7
:102FA000920730F483E067E041E00E94790805C0B1
:102FB00083E067E040E00E94790884E00E943107E6
:102FC0009093CB018093CA018091CA019091CB016B
:102FD000CC01A0E0B0E028E833E140E050E0BC01E3
:102FE000CD010E941F18DC01CB012FEF33E040E040
:102FF00050E0BC01CD010E943E18DA01C901909356
:10300000CB018093CA018091CA019091CB0129E044
:10301000843C920730F483E066E041E00E94790846
:1030200005C083E066E040E00E9479086C960FB628
:10303000F894DEBF0FBECDBFCF91DF910895629FA0
:10304000D001739FF001829FE00DF11D649FE00DA0
:10305000F11D929FF00D839FF00D749FF00D659F01
:10306000F00D9927729FB00DE11DF91F639FB00D00
:10307000E11DF91FBD01CF0111240895A1E21A2E0F
:10308000AA1BBB1BFD010DC0AA1FBB1FEE1FFF1F0C
:10309000A217B307E407F50720F0A21BB30BE40B5C
:1030A000F50B661F771F881F991F1A9469F76095A3
:1030B0007095809590959B01AC01BD01CF0108955D
:1030C0002F923F924F925F926F927F928F929F9238
:1030D000AF92BF92CF92DF92EF92FF920F931F9326
:1030E000CF93DF93CDB7DEB7CA1BDB0B0FB6F894D7
:1030F000DEBF0FBECDBF09942A88398848885F8417
:103100006E847D848C849B84AA84B984C884DF8087
:10311000EE80FD800C811B81AA81B981CE0FD11D6B
:103120000FB6F894DEBF0FBECDBFED010895F89441
:02313000FFCFCF
:1031320054656D70203D2000430046616E203A20A8
:1031420068616C662073706565640046616E203A42
:10315200203735252073706565640046616E203A1C
:103162002066756C6C2073706565640046697265D3
:10317200207761726E696E6721210046616E204F71
:1031820046460000000000000000000001020203A9
:1031920003030304040404040404040505050505EB
:1031A20005050505050505050505050606060606C8
:1031B20006060606060606060606060606060606AD
:1031C2000606060606060606060606070707070798
:1031D200070707070707070707070707070707077D
:1031E200070707070707070707070707070707076D
:1031F200070707070707070707070707070707075D
:103202000707070707070707070707080808080847
:10321200080808080808080808080808080808082C
:10322200080808080808080808080808080808081C
:10323200080808080808080808080808080808080C
:1032420008080808080808080808080808080808FC
:1032520008080808080808080808080808080808EC
:1032620008080808080808080808080808080808DC
:1032720008080808080808080808080808080808CC
:0C328200080808080808080808080800E8
:0400000300002B6E60
:00000001FF
