:100000000C942A000C9447000C9447000C94470071
:100010000C9447000C9447000C943E120C940B1265
:100020000C9447000C94D8110C9447000C94470092
:100030000C9447000C9447000C9447000C94470024
:100040000C9447000C9447000C9447000C94470014
:100050000C94470011241FBECFE5D8E0DEBFCDBF12
:1000600010E0A0E6B0E0E8E6F4E302C005900D92EF
:10007000A43CB107D9F710E0A4ECB0E001C01D9298
:10008000A63CB107E1F70E94F3120C94321A0C94CB
:100090000000EF92FF920F931F937B018C0120E0F1
:1000A00030E040E05FE40E94F50388238CF0C80153
:1000B000B70120E030E040E05FE40E94C1010E940F
:1000C00055049B01AC01205030404040504806C0D0
:1000D000C801B7010E9455049B01AC01B901CA01D6
:1000E0001F910F91FF90EF900895A0E0B0E0EBE733
:1000F000F0E00C94FB19DC012B01FA019C91923089
:1001000008F439C1EB018881823008F433C194309E
:1001100069F4843009F02FC111969C91119789815F
:10012000981709F428C1A4EAB0E025C1843009F485
:1001300021C18230A9F4923009F01DC19A01AD01AC
:1001400088E0EA010990AE01E90109929E0181501F
:10015000C1F7E201898111969C918923818308C1AD
:10016000923009F407C112962D903C901397EB0141
:100170008A819B811496AD90BD90CD90DC901797AD
:10018000EC80FD800E811F819101281B390BB90184
:1001900037FF04C066277727621B730B6032710537
:1001A0000CF061C0121613066CF537014801062EDB
:1001B00004C096948794779467940A94D2F721E0C8
:1001C00030E040E050E004C0220F331F441F551FB1
:1001D0006A95D2F721503040404050402E213F21B7
:1001E00040235123211531054105510521F021E01E
:1001F00030E040E050E079018A01E628F72808293C
:1002000019293CC0232BD1F1260E371E350146019A
:10021000062E04C096948794779467940A94D2F734
:1002200021E030E040E050E004C0220F331F441FC3
:10023000551F6A95D2F721503040404050402A2146
:100240003B214C215D21211531054105510521F04E
:1002500021E030E040E050E059016A01A628B728CB
:10026000C828D9280BC0821593052CF01C01AA249C
:10027000BB24650103C0EE24FF24870111969C91E5
:10028000D20111968C91981709F445C0992339F041
:10029000A80197012A193B094C095D0906C0A6016E
:1002A00095012E193F09400B510B57FD08C01182D3
:1002B0003382228224833583468357831DC081E0A5
:1002C00081833382228288279927DC01821B930B4A
:1002D000A40BB50B84839583A683B7830DC0220F2F
:1002E000331F441F551F24833583468357838281E0
:1002F000938101979383828324813581468157813D
:10030000DA01C9010197A109B1098F5F9F4FAF4F72
:10031000BF4328F30BC0918333822282EA0CFB1C7B
:100320000C1D1D1DE482F5820683178383E0808304
:10033000248135814681578157FF1AC0C901AA27F8
:1003400097FDA095BA2F81709070A070B0705695EF
:10035000479537952795822B932BA42BB52B848318
:100360009583A683B7838281938101969383828349
:10037000DF0101C0D201CD01CDB7DEB7E2E10C94BF
:10038000171AA0E2B0E0E7ECF1E00C94071A6983D9
:100390007A838B839C832D833E834F835887E9E048
:1003A000EE2EF12CEC0EFD1ECE010196B7010E943F
:1003B0007E058E010F5E1F4FCE010596B8010E948B
:1003C0007E058A8991E089278A8BC701B801AE0131
:1003D000475E5F4F0E9475000E94A904A096E6E068
:1003E0000C94231AA0E2B0E0E8EFF1E00C94071AB5
:1003F00069837A838B839C832D833E834F835887C5
:10040000F9E0EF2EF12CEC0EFD1ECE010196B701A6
:100410000E947E058E010F5E1F4FCE010596B8012A
:100420000E947E05C701B801AE01475E5F4F0E9482
:1004300075000E94A904A096E6E00C94231AA0E29D
:10044000B0E0E5E2F2E00C94FB1969837A838B83D8
:100450009C832D833E834F835887CE010196BE0136
:10046000675F7F4F0E947E05CE010596BE016F5EDD
:100470007F4F0E947E059985923088F0898982306D
:10048000C8F0943019F4823051F404C0843029F457
:10049000923081F484EA90E0C6C0923049F420E0C2
:1004A0009A858A89981321E02A87CE010996BBC0D4
:1004B000823049F420E09A858A89981321E02A8BBA
:1004C000CE014196B0C02D843E844F8458886D88FB
:1004D0007E888F88988CEE24FF248701AA24BB2471
:1004E000650140E050E060E070E0E0E0F0E0C10174
:1004F00081709070892BE9F0E60CF71C081D191D1E
:100500009A01AB012A0D3B1D4C1D5D1D80E090E062
:10051000A0E0B0E0E614F7040805190520F481E036
:1005200090E0A0E0B0E0BA01A901480F591F6A1F8E
:100530007B1FAA0CBB1CCC1CDD1C97FE08C081E0F5
:1005400090E0A0E0B0E0A82AB92ACA2ADB2A3196B6
:10055000E032F10549F0660C771C881C991C569412
:10056000479437942794C3CFFA85EA892B893C892D
:100570008B859C85280F391F2E5F3F4F17C0CA01FE
:1005800081709070892B61F016950795F794E79428
:1005900080E090E0A0E0B0E8E82AF92A0A2B1B2BC3
:1005A00076956795579547952F5F3F4F77FDE7CF36
:1005B0000CC0440F551F661F771F17FD4160EE0CDE
:1005C000FF1C001F111F21503040403090E05907A0
:1005D00090E0690790E4790760F32B8F3C8FDB0193
:1005E000CA018F779070A070B07080349105A1051A
:1005F000B10561F447FD0AC0E114F10401051105DC
:1006000029F0405C5F4F6F4F7F4F40781A8EFE1786
:1006100011F081E08A8F4D8F5E8F6F8F78A383E01A
:10062000898FCE0149960E94A904A096E2E10C941C
:10063000171AA8E1B0E0EFE1F3E00C94031A698324
:100640007A838B839C832D833E834F835887B9E0C5
:10065000EB2EF12CEC0EFD1ECE010196B7010E948F
:100660007E058E010F5E1F4FCE010596B8010E94D8
:100670007E052985223008F47EC03989323010F495
:10068000B8017CC08A859A8989278A87243011F02D
:10069000223031F4231709F06EC064EA70E06EC0B6
:1006A000343039F41D861E861F86188A1C861B86E8
:1006B00004C0323021F484E08987B7015FC02B8504
:1006C0003C858B899C89281B390B3C872B87ED84C3
:1006D000FE840F851889AD88BE88CF88D88CEA142F
:1006E000FB040C051D0540F4EE0CFF1C001F111F40
:1006F000215030403C872B8720E030E040E050E044
:1007000080E090E0A0E0B0E460E070E0EA14FB0478
:100710000C051D0540F0282B392B4A2B5B2BEA18C2
:10072000FB080C091D09B695A79597958795EE0CC2
:10073000FF1C001F111F6F5F7F4F6F31710531F775
:10074000DA01C9018F779070A070B0708034910584
:10075000A105B10561F427FD0AC0E114F10401050A
:10076000110529F0205C3F4F4F4F5F4F20782D87B8
:100770003E874F87588BBE01675F7F4FCB010E943A
:10078000A9046896EAE00C941F1AA8E1B0E0EBEC2B
:10079000F3E00C94071A69837A838B839C832D83FF
:1007A0003E834F83588789E0E82EF12CEC0EFD1E26
:1007B000CE010196B7010E947E058E010F5E1F4F8C
:1007C000CE010596B8010E947E058985823040F0F1
:1007D0008989823028F0C701B8010E94F60501C05E
:1007E0008FEF6896E6E00C94231AA8E1B0E0EBEFF7
:1007F000F3E00C94071A69837A838B839C832D839F
:100800003E834F83588789E0E82EF12CEC0EFD1EC5
:10081000CE010196B7010E947E058E010F5E1F4F2B
:10082000CE010596B8010E947E058985823040F090
:100830008989823028F0C701B8010E94F60501C0FD
:100840008FEF6896E6E00C94231AA8E1B0E0EBE2A3
:10085000F4E00C94071A69837A838B839C832D833D
:100860003E834F83588789E0E82EF12CEC0EFD1E65
:10087000CE010196B7010E947E058E010F5E1F4FCB
:10088000CE010596B8010E947E058985823040F030
:100890008989823028F0C701B8010E94F60501C09D
:1008A00081E06896E6E00C94231AACE0B0E0EBE55A
:1008B000F4E00C940B1A69837A838B839C83CE01BA
:1008C0000196BE016B5F7F4F0E947E058D81823055
:1008D00061F1823050F1843021F48E81882351F10E
:1008E0002EC02F81388537FD20C06E812F31310514
:1008F0001CF06623F9F023C08EE190E0821B930B7D
:1009000029853A854B855C8504C056954795379572
:1009100027958A95D2F76623B1F05095409530958A
:1009200021953F4F4F4F5F4F0EC020E030E040E039
:1009300050E009C02FEF3FEF4FEF5FE704C020E02A
:1009400030E040E050E8B901CA012C96E2E00C9496
:10095000271ADF92EF92FF920F931F93FC01E4801E
:10096000F58006811781D1808081823048F480E053
:1009700090E0A0E1B0E0E82AF92A0A2B1B2BA5C0E1
:10098000843009F49FC0823021F4EE24FF248701D3
:1009900005C0E114F1040105110519F4E0E0F0E0EF
:1009A00096C0628173819FEF623879070CF05BC05B
:1009B00022E83FEF261B370B2A3131052CF020E0CF
:1009C00030E040E050E02AC0B801A701022E04C088
:1009D00076956795579547950A94D2F781E090E010
:1009E000A0E0B0E004C0880F991FAA1FBB1F2A9582
:1009F000D2F70197A109B1098E219F21A023B1232C
:100A00000097A105B10521F081E090E0A0E0B0E001
:100A10009A01AB01282B392B4A2B5B2BDA01C90138
:100A20008F779070A070B07080349105A105B105EA
:100A300039F427FF09C0205C3F4F4F4F5F4F04C080
:100A4000215C3F4F4F4F5F4FE0E0F0E02030A0E0EF
:100A50003A07A0E04A07A0E45A0710F0E1E0F0E00E
:100A600079018A0127C06038710564F5FB01E158FE
:100A7000FF4FD801C7018F779070A070B07080349D
:100A80009105A105B10539F4E7FE0DC080E490E0C1
:100A9000A0E0B0E004C08FE390E0A0E0B0E0E80E9A
:100AA000F91E0A1F1B1F17FF05C016950795F7941F
:100AB000E794319687E016950795F794E7948A9521
:100AC000D1F705C0EE24FF248701EFEFF0E06E2F91
:100AD000679566276795902F9F77D794DD24D794E5
:100AE0008E2F8695492F462B582F5D29B701CA01B5
:100AF0001F910F91FF90EF90DF900895FC01DB01B3
:100B0000408151812281622F6F7770E0221F22275E
:100B1000221F9381892F880F822B282F30E0991F65
:100B20009927991F11969C93119721153105A9F5C5
:100B3000411551056105710511F482E037C082E865
:100B40009FEF13969C938E9312979A01AB0167E0E7
:100B5000220F331F441F551F6A95D1F783E08C93F2
:100B60000DC0220F331F441F551F12968D919C916B
:100B70001397019713969C938E931297203080E0E1
:100B8000380780E0480780E4580758F314962D93FF
:100B90003D934D935C93179708952F3F310579F45A
:100BA000411551056105710519F484E08C93089590
:100BB00064FF03C081E08C9312C01C9210C02F57B9
:100BC000304013963C932E93129783E08C9387E0EA
:100BD000440F551F661F771F8A95D1F770641496CE
:100BE0004D935D936D937C93179708951F93DC014C
:100BF000FB019C91923008F447C08081823008F458
:100C000043C0943051F411961C91843099F5818140
:100C1000682F70E0611B71093FC0843021F0923071
:100C200031F48230B9F18181882389F12DC0119688
:100C30001C9111978230F1F081811817D9F4129626
:100C40002D913C911397828193818217930794F0A1
:100C500028173907BCF014968D919D910D90BC9189
:100C6000A02D2481358146815781281739074A07ED
:100C70005B0718F4112341F00AC082179307A407F9
:100C8000B50740F4112319F061E070E005C06FEF83
:100C90007FEF02C060E070E0CB011F910895DF9309
:100CA000CF93CDB7DEB727970FB6F894DEBF0FBE50
:100CB000CDBF89836A834B838A81883008F0EAC07C
:100CC0008B81813009F06FC08981282F30E03F830C
:100CD0002E838E819F818130910549F12E813F8144
:100CE000223031052CF48E819F81009761F0D2C0B3
:100CF0002E813F812230310571F18E819F818330B9
:100D00009105E9F1C7C0AAE3B0E0EAE3F0E0808131
:100D1000482F8A81282F30E081E090E0022E02C027
:100D2000880F991F0A94E2F7842B8C93B3C0A7E332
:100D3000B0E0E7E3F0E08081482F8A81282F30E09F
:100D400081E090E0022E02C0880F991F0A94E2F71A
:100D5000842B8C939FC0A4E3B0E0E4E3F0E08081B7
:100D6000482F8A81282F30E081E090E0022E02C0D7
:100D7000880F991F0A94E2F7842B8C938BC0A1E310
:100D8000B0E0E1E3F0E08081482F8A81282F30E055
:100D900081E090E0022E02C0880F991F0A94E2F7CA
:100DA000842B8C9377C08B81882309F073C0898151
:100DB000282F30E03D832C838C819D8181309105EB
:100DC00059F12C813D81223031052CF48C819D819B
:100DD000009769F05FC02C813D812230310589F197
:100DE0008C819D818330910509F440C053C0AAE3F2
:100DF000B0E0EAE3F0E08081482F8A81282F30E0DC
:100E000081E090E0022E02C0880F991F0A94E2F759
:100E1000809584238C933EC0A7E3B0E0E7E3F0E045
:100E20008081482F8A81282F30E081E090E0022ED7
:100E300002C0880F991F0A94E2F7809584238C934F
:100E400029C0A4E3B0E0E4E3F0E08081482F8A8188
:100E5000282F30E081E090E0022E02C0880F991F19
:100E60000A94E2F7809584238C9314C0A1E3B0E048
:100E7000E1E3F0E08081482F8A81282F30E081E093
:100E800090E0022E02C0880F991F0A94E2F7809525
:100E900084238C9327960FB6F894DEBF0FBECDBF88
:100EA000CF91DF910895DF93CF93CDB7DEB727972A
:100EB0000FB6F894DEBF0FBECDBF89836A834B8324
:100EC0008A81883008F0EAC08B81813009F06FC0D8
:100ED0008981282F30E03F832E838E819F8181304E
:100EE000910549F12E813F81223031052CF48E810C
:100EF0009F81009761F0D2C02E813F812230310561
:100F000071F18E819F8183309105E9F1C7C0ABE318
:100F1000B0E0EBE3F0E08081482F8A81282F30E0B9
:100F200081E090E0022E02C0880F991F0A94E2F738
:100F3000842B8C93B3C0A8E3B0E0E8E3F0E08081B9
:100F4000482F8A81282F30E081E090E0022E02C0F5
:100F5000880F991F0A94E2F7842B8C939FC0A5E316
:100F6000B0E0E5E3F0E08081482F8A81282F30E06F
:100F700081E090E0022E02C0880F991F0A94E2F7E8
:100F8000842B8C938BC0A2E3B0E0E2E3F0E080819D
:100F9000482F8A81282F30E081E090E0022E02C0A5
:100FA000880F991F0A94E2F7842B8C9377C08B816A
:100FB000882309F073C08981282F30E03D832C837A
:100FC0008C819D818130910559F12C813D812230A8
:100FD00031052CF48C819D81009769F05FC02C81D4
:100FE0003D812230310589F18C819D8183309105CD
:100FF00009F440C053C0ABE3B0E0EBE3F0E0808124
:10100000482F8A81282F30E081E090E0022E02C034
:10101000880F991F0A94E2F7809584238C933EC031
:10102000A8E3B0E0E8E3F0E08081482F8A81282F30
:1010300030E081E090E0022E02C0880F991F0A94F0
:10104000E2F7809584238C9329C0A5E3B0E0E5E323
:10105000F0E08081482F8A81282F30E081E090E005
:10106000022E02C0880F991F0A94E2F7809584230C
:101070008C9314C0A2E3B0E0E2E3F0E08081482F5B
:101080008A81282F30E081E090E0022E02C0880F94
:10109000991F0A94E2F7809584238C9327960FB6C4
:1010A000F894DEBF0FBECDBFCF91DF910895DF93DF
:1010B000CF9300D000D000D0CDB7DEB789836A834C
:1010C0008A81883008F06FC08981282F30E03D8305
:1010D0002C834C815D814130510549F18C819D818A
:1010E0008230910534F42C813D812115310561F068
:1010F00057C04C815D814230510561F18C819D81E9
:1011000083309105D1F14CC0E9E3F0E08081282FD4
:1011100030E08A81882F90E0A90102C0559547955B
:101120008A95E2F7CA01582F51705B833DC0E6E310
:10113000F0E08081282F30E08A81882F90E0A9019B
:1011400002C0559547958A95E2F7CA01582F51700C
:101150005B832AC0E3E3F0E08081282F30E08A81BE
:10116000882F90E0A90102C0559547958A95E2F72E
:10117000CA01582F51705B8317C0E0E3F0E0808113
:10118000282F30E08A81882F90E0A90102C0559570
:1011900047958A95E2F7CA01582F51705B8304C0C6
:1011A0008FEF8B8301C002C09B819E838E81269628
:1011B0000FB6F894DEBF0FBECDBFCF91DF9108957B
:1011C000DF93CF9300D000D0CDB7DEB789836A8399
:1011D0008981282F30E03C832B838B819C81813057
:1011E0009105D1F02B813C81223031052CF48B818B
:1011F0009C81009761F01EC02B813C81223031051B
:1012000081F08B819C818330910581F013C0EAE3EA
:10121000F0E08A8180830EC0E7E3F0E08A8180837A
:1012200009C0E4E3F0E08A81808304C0E1E3F0E0F8
:101230008A8180830F900F900F900F90CF91DF9154
:101240000895DF93CF9300D000D0CDB7DEB7898368
:101250006A838981282F30E03C832B838B819C819A
:1012600081309105D1F02B813C81223031052CF465
:101270008B819C81009761F01EC02B813C812230C4
:10128000310581F08B819C818330910581F013C001
:10129000EBE3F0E08A8180830EC0E8E3F0E08A812E
:1012A000808309C0E5E3F0E08A81808304C0E2E343
:1012B000F0E08A8180830F900F900F900F90CF9174
:1012C000DF910895DF93CF9300D0CDB7DEB7898348
:1012D0006A830F900F90CF91DF910895DF93CF93A2
:1012E0000F92CDB7DEB7198220C08981843068F4AF
:1012F0008981882F90E0FC01E454FF4F908182E0C7
:10130000692F41E00E944F060DC08981882F90E02F
:101310000497FC01E054FF4F908182E0692F40E088
:101320000E944F0689818F5F898389818830E8F226
:1013300082E06FEF0E9421090F90CF91DF91089515
:10134000DF93CF93CDB7DEB763970FB6F894DEBFC8
:101350000FBECDBF188A8FEF8F871B8ADDC08B89A8
:10136000882F90E0FC01E454FF4F908182E0692FC8
:1013700040E00E9453071A8AB9C08A89882F90E0FA
:10138000FC01E054FF4F908182E0692F0E945708D2
:10139000898B8989882309F0A6C080E090E0A8ECB9
:1013A000B1E48B879C87AD87BE876B857C858D85F7
:1013B0009E8520E030E04AEF54E40E941F02DC01E9
:1013C000CB018F839887A987BA876F8178858985B4
:1013D0009A8520E030E040E85FE30E9425048823FE
:1013E0002CF481E090E09E838D833FC06F817885EF
:1013F00089859A8520E03FEF4FE757E40E94C503B7
:1014000018164CF56B857C858D859E8520E030E037
:1014100040E251E40E941F02DC01CB01BC01CD017E
:101420000E944900DC01CB019E838D830FC088ECB4
:1014300090E09C838B838B819C810197F1F79C8347
:101440008B838D819E8101979E838D838D819E816B
:10145000009769F714C06F81788589859A850E9405
:101460004900DC01CB019E838D838D819E819A830F
:10147000898389819A810197F1F79A8389838A897F
:10148000882F90E0FC01E054FF4F908182E0692FAB
:101490000E945708898B8989882329F58B89482FD1
:1014A00050E08A89282F30E0CA01880F991F880FE1
:1014B000991F820F931FFC01E455FF4F80818F8796
:1014C0000CC08A89882F90E0FC01E054FF4F908186
:1014D00082E0692F0E945708898B8989882389F3C4
:1014E00081E0888B07C08A898F5F8A8B8A898430E4
:1014F00008F443CF8B89882F90E0FC01E454FF4F20
:10150000908182E0692F41E00E94530788898130F1
:1015100039F08B898F5F8B8B8B89843008F41FCFD8
:101520008F8563960FB6F894DEBF0FBECDBFCF9107
:10153000DF9108950F931F93DF93CF93CDB7DEB75D
:10154000CC54D0400FB6F894DEBF0FBECDBF81E0C3
:101550006FEF0E94E00880E060E041E00E944F06EB
:1015600080E061E041E00E944F0680E062E041E0FF
:101570000E944F06FE01E75BFF4F80E090E0ACE089
:10158000B2E480839183A283B3838E010B5B1F4FF0
:10159000FE01E75BFF4F608171818281938120E0D2
:1015A00030E04AEF54E40E941F02DC01CB01F80155
:1015B00080839183A283B383FE01EB5BFF4F608145
:1015C00071818281938120E030E040E85FE30E94F6
:1015D0002504882344F4FE01ED5BFF4F81E090E099
:1015E0009183808364C0FE01EB5BFF4F608171815A
:1015F0008281938120E03FEF4FE757E40E94C503CB
:1016000018160CF043C0FE01E75BFF4F608171814B
:101610008281938120E030E040E251E40E941F0289
:10162000DC01CB018E010D5B1F4FBC01CD010E947F
:101630004900DC01CB01F801918380831FC0FE01CA
:10164000EF5BFF4F88EC90E091838083FE01EF5BBE
:10165000FF4F808191810197F1F7FE01EF5BFF4F12
:1016600091838083DE01AD5BBF4FFE01ED5BFF4FD9
:1016700080819181019711969C938E93FE01ED5B81
:10168000FF4F808191810097D1F624C08E010D5BC0
:101690001F4FFE01EB5BFF4F60817181828193815F
:1016A0000E944900DC01CB01F80191838083FE0197
:1016B000ED5BFF4F80819181FE01FF9691838083D6
:1016C000FE01FF96808191810197F1F7FE01FF965F
:1016D0009183808388E30E946D0D80E090E0A8E410
:1016E000B2E48BAF9CAFADAFBEAF6BAD7CAD8DAD9B
:1016F0009EAD2BEA3AEA4AE250E40E941F02DC0166
:10170000CB018FAB98AFA9AFBAAF6FA978AD89AD58
:101710009AAD20E030E040E85FE30E942504882392
:101720001CF481E08EAB91C06FA978AD89AD9AAD04
:1017300020E030E04FE753E40E94C50318160CF098
:101740007BC06BAD7CAD8DAD9EAD20E030E04AE757
:1017500054E40E941903DC01CB018AAB9BABACAB18
:10176000BDAB6AA97BA98CA99DA920E030E04AEF16
:1017700054E40E941F02DC01CB018EA79FA7A8ABF7
:10178000B9AB6EA57FA588A999A920E030E040E813
:101790005FE30E94250488232CF481E090E09DA75C
:1017A0008CA73FC06EA57FA588A999A920E03FEF2F
:1017B0004FE757E40E94C50318164CF56AA97BA9A8
:1017C0008CA99DA920E030E040E251E40E941F0274
:1017D000DC01CB01BC01CD010E944900DC01CB0141
:1017E0009DA78CA70FC088EC90E09BA78AA78AA52D
:1017F0009BA50197F1F79BA78AA78CA59DA50197AB
:101800009DA78CA78CA59DA5009769F724C06EA500
:101810007FA588A999A90E944900DC01CB019DA759
:101820008CA78CA59DA599A788A788A599A50197A0
:10183000F1F799A788A70FC06FA978AD89AD9AADC8
:101840000E944900DC01CB018EAB8EA98FA38FA132
:101850008A95F1F78FA38FE00E946D0D80E090E0F4
:10186000A8E4B2E48BA39CA3ADA3BEA36BA17CA10F
:101870008DA19EA12BEA3AEA4AE250E40E941F029F
:10188000DC01CB018F8F98A3A9A3BAA36F8D78A198
:1018900089A19AA120E030E040E85FE30E9425049E
:1018A00088231CF481E08E8F91C06F8D78A189A16F
:1018B0009AA120E030E04FE753E40E94C5031816D8
:1018C0000CF07BC06BA17CA18DA19EA120E030E03B
:1018D0004AE754E40E941903DC01CB018A8F9B8FF5
:1018E000AC8FBD8F6A8D7B8D8C8D9D8D20E030E01F
:1018F0004AEF54E40E941F02DC01CB018E8B9F8BC8
:10190000A88FB98F6E897F89888D998D20E030E00E
:1019100040E85FE30E94250488232CF481E090E0F6
:101920009D8B8C8B3FC06E897F89888D998D20E03F
:101930003FEF4FE757E40E94C50318164CF56A8D38
:101940007B8D8C8D9D8D20E030E040E251E40E9443
:101950001F02DC01CB01BC01CD010E944900DC016A
:10196000CB019D8B8C8B0FC088EC90E09B8B8A8B7E
:101970008A899B890197F1F79B8B8A8B8C899D893A
:1019800001979D8B8C8B8C899D89009769F724C06A
:101990006E897F89888D998D0E944900DC01CB0179
:1019A0009D8B8C8B8C899D89998B888B8889998953
:1019B0000197F1F7998B888B0FC06F8D78A189A162
:1019C0009AA10E944900DC01CB018E8F8E8D8F87FA
:1019D0008F858A95F1F78F8781E00E946D0D80E0F9
:1019E00090E0A0E0B0E48B879C87AD87BE876B85D5
:1019F0007C858D859E8520E030E04AEF54E40E948E
:101A00001F02DC01CB018F839887A987BA876F817A
:101A1000788589859A8520E030E040E85FE30E9480
:101A2000250488232CF481E090E09E838D833FC0C1
:101A30006F81788589859A8520E03FEF4FE757E4ED
:101A40000E94C50318164CF56B857C858D859E8597
:101A500020E030E040E251E40E941F02DC01CB01B3
:101A6000BC01CD010E944900DC01CB019E838D8326
:101A70000FC088EC90E09C838B838B819C810197C5
:101A8000F1F79C838B838D819E8101979E838D834B
:101A90008D819E81009769F714C06F817885898553
:101AA0009A850E944900DC01CB019E838D838D8144
:101AB0009E819A83898389819A810197F1F79A831C
:101AC0008983C45BDF4F0FB6F894DEBF0FBECDBF76
:101AD000CF91DF911F910F910895DF93CF93CDB7F1
:101AE000DEB769970FB6F894DEBF0FBECDBF898F02
:101AF00080E060E040E00E94530780E061E040E069
:101B00000E94530781E0698D0E94210980E062E014
:101B100041E00E94530780E090E0A0E8BFE38D8B96
:101B20009E8BAF8BB88F6D897E898F89988D2BEABC
:101B30003AEA4AE250E40E941F02DC01CB01898BA1
:101B40009A8BAB8BBC8B69897A898B899C8920E0C5
:101B500030E040E85FE30E94250488231CF481E024
:101B6000888B91C069897A898B899C8920E030E0D3
:101B70004FE753E40E94C50318160CF07BC06D8933
:101B80007E898F89988D20E030E04AE754E40E94F6
:101B90001903DC01CB018C879D87AE87BF876C85DD
:101BA0007D858E859F8520E030E04AEF54E40E94D9
:101BB0001F02DC01CB0188879987AA87BB876885CC
:101BC00079858A859B8520E030E040E85FE30E94CC
:101BD000250488232CF481E090E09F838E833FC00E
:101BE000688579858A859B8520E03FEF4FE757E43C
:101BF0000E94C50318164CF56C857D858E859F85E2
:101C000020E030E040E251E40E941F02DC01CB0101
:101C1000BC01CD010E944900DC01CB019F838E8372
:101C20000FC088EC90E09D838C838C819D8101970F
:101C3000F1F79D838C838E819F8101979F838E8393
:101C40008E819F81009769F724C0688579858A8590
:101C50009B850E944900DC01CB019F838E838E818E
:101C60009F819B838A838A819B810197F1F79B8364
:101C70008A830FC069897A898B899C890E9449006F
:101C8000DC01CB01888B8889898389818A95F1F76A
:101C9000898380E062E040E00E94530769960FB6B6
:101CA000F894DEBF0FBECDBFCF91DF910895DF93D3
:101CB000CF93CDB7DEB769970FB6F894DEBF0FBEEE
:101CC000CDBF898F80E060E041E00E94530780E053
:101CD00061E040E00E94530781E0698D0E94210984
:101CE00080E062E041E00E94530780E090E0A0E8DD
:101CF000BFE38D8B9E8BAF8BB88F6D897E898F896B
:101D0000988D2BEA3AEA4AE250E40E941F02DC0175
:101D1000CB01898B9A8BAB8BBC8B69897A898B8938
:101D20009C8920E030E040E85FE30E94250488239E
:101D30001CF481E0888B91C069897A898B899C89A0
:101D400020E030E04FE753E40E94C50318160CF082
:101D50007BC06D897E898F89988D20E030E04AE7CD
:101D600054E40E941903DC01CB018C879D87AE8768
:101D7000BF876C857D858E859F8520E030E04AEFAA
:101D800054E40E941F02DC01CB0188879987AA874F
:101D9000BB87688579858A859B8520E030E040E8AF
:101DA0005FE30E94250488232CF481E090E09F8368
:101DB0008E833FC0688579858A859B8520E03FEFCB
:101DC0004FE757E40E94C50318164CF56C857D85D6
:101DD0008E859F8520E030E040E251E40E941F02A2
:101DE000DC01CB01BC01CD010E944900DC01CB012B
:101DF0009F838E830FC088EC90E09D838C838C81C1
:101E00009D810197F1F79D838C838E819F8101973E
:101E10009F838E838E819F81009769F724C0688598
:101E200079858A859B850E944900DC01CB019F83CF
:101E30008E838E819F819B838A838A819B81019778
:101E4000F1F79B838A830FC069897A898B899C8982
:101E50000E944900DC01CB01888B888989838981B4
:101E60008A95F1F7898380E062E040E00E945307A1
:101E700069960FB6F894DEBF0FBECDBFCF91DF914C
:101E80000895DF93CF9300D00F92CDB7DEB79B8339
:101E90008A8319820EC08981282F30E08A819B8134
:101EA000FC01E20FF31F80810E94570E89818F5F32
:101EB00089838981282F30E08A819B81FC01E20F90
:101EC000F31F8081882339F70F900F900F90CF91E7
:101ED000DF910895DF93CF9300D000D0CDB7DEB768
:101EE00089836A838981282F30E03C832B838B810F
:101EF0009C818130910531F02B813C81223031056C
:101F000031F009C08A8180580E946D0D04C08A8119
:101F100080540E946D0D0F900F900F900F90CF91F5
:101F2000DF9108950F931F93DF93CF93CDB7DEB763
:101F300060970FB6F894DEBF0FBECDBF6D877E876A
:101F40008F87988B89E089838D859E85AF85B88939
:101F50000097A105B10521F480E30E94570E44C00B
:101F60001C862EC08981082F10E08D859E85AF8547
:101F7000B8892AE030E040E050E0BC01CD010E9489
:101F8000D919DC01CB01282F205DCE010296FC017E
:101F9000E00FF11F20838D859E85AF85B8892AE0EB
:101FA00030E040E050E0BC01CD010E94D919DA01D7
:101FB000C9018D879E87AF87B88B898181508983BE
:101FC0008D859E85AF85B8890097A105B10551F62D
:101FD0008981882F90E09C012F5F3F4FCE010296B0
:101FE000820F931F0E94410F60960FB6F894DEBFD8
:101FF0000FBECDBFCF91DF911F910F910895DF9359
:10200000CF93CDB7DEB76C970FB6F894DEBF0FBE97
:10201000CDBF8A8F7C8F6B8F8A8D882F90E008963A
:10202000880F991F880F991F880F991F0E946D0DA7
:1020300080E090E0A0E2B2E48D8B9E8BAF8BB88FF6
:102040006D897E898F89988D2BEA3AEA4AE250E4BD
:102050000E941F02DC01CB01898B9A8BAB8BBC8B5E
:1020600069897A898B899C8920E030E040E85FE3C8
:102070000E94250488231CF481E0888B91C0698923
:102080007A898B899C8920E030E04FE753E40E94F5
:10209000C50318160CF07BC06D897E898F89988DD9
:1020A00020E030E04AE754E40E941903DC01CB0150
:1020B0008C879D87AE87BF876C857D858E859F8544
:1020C00020E030E04AEF54E40E941F02DC01CB0123
:1020D00088879987AA87BB87688579858A859B8544
:1020E00020E030E040E85FE30E94250488232CF4E0
:1020F00081E090E09F838E833FC0688579858A85E3
:102100009B8520E03FEF4FE757E40E94C503181678
:102110004CF56C857D858E859F8520E030E040E222
:1021200051E40E941F02DC01CB01BC01CD010E94E1
:102130004900DC01CB019F838E830FC088EC90E0C7
:102140009D838C838C819D810197F1F79D838C8386
:102150008E819F8101979F838E838E819F810097BF
:1021600069F724C0688579858A859B850E94490026
:10217000DC01CB019F838E838E819F819B838A8329
:102180008A819B810197F1F79B838A830FC06989BC
:102190007A898B899C890E944900DC01CB01888B5C
:1021A0008889898389818A95F1F78983198E0EC080
:1021B000898D282F30E08B8D9C8DFC01E20FF31F61
:1021C00080810E94570E898D8F5F898F898D88301D
:1021D00078F36C960FB6F894DEBF0FBECDBFCF91EB
:1021E000DF910895DF93CF930F92CDB7DEB7898348
:1021F00089810E94570E0F90CF91DF910895DF9350
:10220000CF9300D0CDB7DEB79A83898389819A8135
:102210009093C5008093C4000F900F90CF91DF91F1
:102220000895DF93CF93CDB7DEB7AEE4B0E0EEE430
:10223000F0E080818E7F8C93AEE4B0E0EEE4F0E0DD
:10224000808182608C93AEE4B0E0EEE4F0E08081C7
:102250008B7F8C93AFE4B0E0EFE4F0E080818F7E81
:102260008C93AFE4B0E0EFE4F0E080818F7B8C935F
:10227000AFE4B0E0EFE4F0E0808180628C93AFE403
:10228000B0E0EFE4F0E0808180688C93AFE4B0E0F0
:10229000EFE4F0E080818E7F8C93AFE4B0E0EFE478
:1022A000F0E0808182608C93AEE4B0E0EEE4F0E098
:1022B000808188608C93AEE4B0E0EEE4F0E0808151
:1022C00080618C93E6E4F0E080E29EE49183808379
:1022D000CF91DF910895DF93CF9300D0CDB7DEB7D4
:1022E0009A838983EAE4F0E089819A8191838083EB
:1022F0000F900F90CF91DF910895DF93CF9300D08F
:10230000CDB7DEB79A838983ECE4F0E089819A81C6
:10231000918380830F900F90CF91DF910895DF9389
:10232000CF93CDB7DEB7E6E4F0E080819181CF9125
:10233000DF910895DF93CF9300D0CDB7DEB79A83B6
:102340008983E6E4F0E089819A81918380830F900C
:102350000F90CF91DF910895DF93CF9300D000D0FD
:10236000CDB7DEB79A83898389819A819C838B83D9
:102370008B819C81009731F08B819C81813091050C
:1023800049F00FC0AEE4B0E0EEE4F0E0808180649C
:102390008C9307C0AEE4B0E0EEE4F0E080818F7B88
:1023A0008C930F900F900F900F90CF91DF91089525
:1023B0001F920F920FB60F9211242F933F934F93BA
:1023C0005F936F937F938F939F93AF93BF93EF939D
:1023D000FF93DF93CF93CDB7DEB78091C400909188
:1023E000C500009729F0E091C400F091C50009955F
:1023F000CF91DF91FF91EF91BF91AF919F918F911D
:102400007F916F915F914F913F912F910F900FBEF0
:102410000F901F9018951F920F920FB60F921124D4
:102420002F933F934F935F936F937F938F939F93DC
:10243000AF93BF93EF93FF93DF93CF93CDB7DEB707
:102440008091C4009091C500009729F0E091C400EC
:10245000F091C5000995CF91DF91FF91EF91BF9168
:10246000AF919F918F917F916F915F914F913F912C
:102470002F910F900FBE0F901F9018951F920F92E3
:102480000FB60F9211242F933F934F935F936F9347
:102490007F938F939F93AF93BF93EF93FF93DF93BC
:1024A000CF93CDB7DEB78091C4009091C50000975F
:1024B00029F0E091C400F091C5000995CF91DF911A
:1024C000FF91EF91BF91AF919F918F917F916F910C
:1024D0005F914F913F912F910F900FBE0F901F90E2
:1024E0001895DF93CF9300D00F92CDB7DEB783E37B
:1024F00090E09B838A8380E88983E9E2F0E08A8127
:102500008083E0E4F0E08A819B81892F9927808392
:10251000ABE2B0E0EBE2F0E080818D7F8C93ABE248
:10252000B0E0EBE2F0E080818E7F8C93AAE2B0E035
:10253000EAE2F0E0808180618C93AAE2B0E0EAE216
:10254000F0E0808188608C93AAE2B0E0EAE2F0E0FB
:1025500080818B7F8C93898184608983898182606B
:10256000898389818F7B898389818F7E8983898112
:102570008F7D898389818860898389818E7F898322
:10258000E0E4F0E0898180830F900F900F90CF916D
:10259000DF910895DF93CF930F92CDB7DEB7898394
:1025A000EBE2F0E08081829586958770882F90E03D
:1025B000817090700097A1F3ECE2F0E08981808354
:1025C0000F90CF91DF910895DF93CF93CDB7DEB712
:1025D000EBE2F0E080818823DCF7ECE2F0E0808140
:1025E000CF91DF9108950F931F93DF93CF93CDB7D2
:1025F000DEB7CA59D0400FB6F894DEBF0FBECDBFCC
:10260000FE01E157FF4F1082FE01E257FF4F10829B
:10261000FE01E357FF4F1082CE018F569F4FCA56DF
:10262000DF4F99838883C659D0408FE990E0C85620
:10263000DF4F99838883C859D04095E0C656DF4F55
:102640009883CA59D040C856DF4FE881F981C859EC
:10265000D0400080C856DF4F88819981C859D0404A
:102660000196C856DF4F99838883C859D040CA560F
:10267000DF4FE881F981C659D0400082CA56DF4F4A
:1026800088819981C659D0400196CA56DF4F9983F7
:102690008883C659D040C656DF4F9881CA59D0406A
:1026A0009150C656DF4F9883CA59D040C656DF4F67
:1026B000E881CA59D040EE2331F60E949A0A0E945E
:1026C0006E090E9411110E94711283E065E041E0E1
:1026D0000E944F0680E064E041E00E944F0680E6E1
:1026E00090E00E94410F0E94A009FE01E057FF4FB9
:1026F0008083FE01E057FF4F80818F3FA1F3FE01F1
:10270000E057FF4F8081833409F0F2C2FE01E157A8
:10271000FF4F1082FE01E257FF4F1082FE01E35788
:10272000FF4F81E0808381E00E946D0DFE01E7573D
:10273000FF4F80E090E0A0E0B0E480839183A2832B
:10274000B3838E010B571F4FFE01E757FF4F608188
:1027500071818281938120E030E04AEF54E40E944D
:102760001F02DC01CB01F80180839183A283B38334
:10277000FE01EB57FF4F608171818281938120E0E0
:1027800030E040E85FE30E942504882344F4FE0122
:10279000ED57FF4F81E090E09183808364C0FE019C
:1027A000EB57FF4F608171818281938120E03FEF81
:1027B0004FE757E40E94C50318160CF043C0FE0112
:1027C000E757FF4F608171818281938120E030E083
:1027D00040E251E40E941F02DC01CB018E010D5743
:1027E0001F4FBC01CD010E944900DC01CB01F80163
:1027F000918380831FC0FE01EF57FF4F88EC90E06C
:1028000091838083FE01EF57FF4F80819181019773
:10281000F1F7FE01EF57FF4F91838083DE01AD5743
:10282000BF4FFE01ED57FF4F8081918101971196B7
:102830009C938E93FE01ED57FF4F8081918100970D
:10284000D1F627C08E010D571F4FFE01EB57FF4FEA
:1028500060817181828193810E944900DC01CB01FA
:10286000F80191838083DE01A158BF4FFE01ED572F
:10287000FF4F808191818D939C93FE01E158FF4F22
:10288000808191810197F1F7FE01E158FF4F91831B
:1028900080838CE690E00E94410F80E064E041E09C
:1028A0000E945307FE01E558FF4F80E090E0AAE741
:1028B000B3E480839183A283B3838E0109581F4FB1
:1028C000FE01E558FF4F608171818281938120E094
:1028D00030E04AEF54E40E941F02DC01CB01F80112
:1028E00080839183A283B383FE01E958FF4F608107
:1028F00071818281938120E030E040E85FE30E94B3
:102900002504882344F4FE01EB58FF4F81E090E05A
:102910009183808364C0FE01E958FF4F608171811B
:102920008281938120E03FEF4FE757E40E94C50387
:1029300018160CF043C0FE01E558FF4F608171810D
:102940008281938120E030E040E251E40E941F0246
:10295000DC01CB018E010B581F4FBC01CD010E9441
:102960004900DC01CB01F801918380831FC0FE0187
:10297000ED58FF4F88EC90E091838083FE01ED5885
:10298000FF4F808191810197F1F7FE01ED58FF4FD4
:1029900091838083DE01AB58BF4FFE01EB58FF4FA0
:1029A00080819181019711969C938E93FE01EB5843
:1029B000FF4F808191810097D1F627C08E010B587F
:1029C0001F4FFE01E958FF4F608171818281938121
:1029D0000E944900DC01CB01F80191838083DE0174
:1029E000AF58BF4FFE01EB58FF4F808191818D930F
:1029F0009C93FE01EF58FF4F808191810197F1F781
:102A0000FE01EF58FF4F9183808380E064E040E057
:102A10000E945307FE01E359FF4F80E090E0AAE7D0
:102A2000B3E480839183A283B3838E0107591F4F40
:102A3000FE01E359FF4F608171818281938120E023
:102A400030E04AEF54E40E941F02DC01CB01F801A0
:102A500080839183A283B383FE01E759FF4F608196
:102A600071818281938120E030E040E85FE30E9441
:102A70002504882344F4FE01E959FF4F81E090E0EA
:102A80009183808364C0FE01E759FF4F60817181AB
:102A90008281938120E03FEF4FE757E40E94C50316
:102AA00018160CF043C0FE01E359FF4F608171819D
:102AB0008281938120E030E040E251E40E941F02D5
:102AC000DC01CB018E0109591F4FBC01CD010E94D1
:102AD0004900DC01CB01F801918380831FC0FE0116
:102AE000EB59FF4F88EC90E091838083FE01EB5916
:102AF000FF4F808191810197F1F7FE01EB59FF4F64
:102B000091838083DE01A959BF4FFE01E959FF4F30
:102B100080819181019711969C938E93FE01E959D2
:102B2000FF4F808191810097D1F627C08E0109590E
:102B30001F4FFE01E759FF4F6081718182819381B0
:102B40000E944900DC01CB01F80191838083DE0102
:102B5000AD59BF4FFE01E959FF4F808191818D939F
:102B60009C93FE01ED59FF4F808191810197F1F710
:102B7000FE01ED59FF4F9183808381E00E946D0D2E
:102B8000FE01E15AFF4F80E090E0A0E0B0E48083D6
:102B90009183A283B3838E01055A1F4FFE01E15A30
:102BA000FF4F608171818281938120E030E04AEFA4
:102BB00054E40E941F02DC01CB01F8018083918361
:102BC000A283B383FE01E55AFF4F60817181828148
:102BD000938120E030E040E85FE30E9425048823F1
:102BE00044F4FE01E75AFF4F81E090E09183808337
:102BF00064C0FE01E55AFF4F60817181828193813B
:102C000020E03FEF4FE757E40E94C50318160CF091
:102C100043C0FE01E15AFF4F60817181828193813F
:102C200020E030E040E251E40E941F02DC01CB01D1
:102C30008E01075A1F4FBC01CD010E944900DC01E3
:102C4000CB01F801918380831FC0FE01E95AFF4F39
:102C500088EC90E091838083FE01E95AFF4F8081E8
:102C600091810197F1F7FE01E95AFF4F918380832B
:102C7000DE01A75ABF4FFE01E75AFF4F80819181C5
:102C8000019711969C938E93FE01E75AFF4F808126
:102C900091810097D1F627C08E01075A1F4FFE0180
:102CA000E55AFF4F60817181828193810E944900C2
:102CB000DC01CB01F80191838083DE01AB5ABF4F69
:102CC000FE01E75AFF4F808191818D939C93FE0115
:102CD000EB5AFF4F808191810197F1F7FE01EB5A8A
:102CE000FF4F9183808380E690E00E94410FFBCCF0
:102CF0008AE20E94570EFE01E157FF4F8081282F84
:102D000030E0CE018F569F4FFC01E20FF31F908100
:102D1000FE01E057FF4F8081981729F0FE01E2572E
:102D2000FF4F81E08083DE01A157BF4FFE01E157D5
:102D3000FF4F80818F5F8C93FE01E157FF4F8081B1
:102D4000843009F0D0CC81E00E946D0DFE01EF5A75
:102D5000FF4F80E090E0A0E0B0E480839183A28305
:102D6000B3838E01035B1F4FFE01EF5AFF4F60815B
:102D700071818281938120E030E04AEF54E40E9427
:102D80001F02DC01CB01F80180839183A283B3830E
:102D9000FE01E35BFF4F608171818281938120E0BE
:102DA00030E040E85FE30E942504882344F4FE01FC
:102DB000E55BFF4F81E090E09183808364C0FE017A
:102DC000E35BFF4F608171818281938120E03FEF5F
:102DD0004FE757E40E94C50318160CF043C0FE01EC
:102DE000EF5AFF4F608171818281938120E030E052
:102DF00040E251E40E941F02DC01CB018E01055B21
:102E00001F4FBC01CD010E944900DC01CB01F8013C
:102E1000918380831FC0FE01E75BFF4F88EC90E049
:102E200091838083FE01E75BFF4F80819181019751
:102E3000F1F7FE01E75BFF4F91838083DE01A55B25
:102E4000BF4FFE01E55BFF4F808191810197119695
:102E50009C938E93FE01E55BFF4F808191810097EB
:102E6000D1F628C08E01055B1F4FFE01E35BFF4FCB
:102E700060817181828193810E944900DC01CB01D4
:102E8000F80191838083DE01A95BBF4FFE01E55B02
:102E9000FF4F8081918111969C938E93FE01E95B97
:102EA000FF4F808191810197F1F7FE01E95BFF4FB0
:102EB00091838083FE01E257FF4F8081882309F0D0
:102EC00080C182E790E00E94410F81E40E94CA1213
:102ED000FE01ED5BFF4F80E090E0AAE7B4E4808361
:102EE0009183A283B3838E01015C1F4FFE01ED5BD2
:102EF000FF4F608171818281938120E030E04AEF51
:102F000054E40E941F02DC01CB01F801808391830D
:102F1000A283B383FE01FF966081718182819381D8
:102F200020E030E040E85FE30E94250488232CF491
:102F300081E090E09EAF8DAF46C0FE01FF966081BC
:102F400071818281938120E03FEF4FE757E40E9437
:102F5000C503181664F5FE01ED5BFF4F60817181BA
:102F60008281938120E030E040E251E40E941F0220
:102F7000DC01CB01BC01CD010E944900DC01CB0189
:102F80009EAF8DAF0FC088EC90E09CAF8BAF8BAD48
:102F90009CAD0197F1F79CAF8BAF8DAD9EAD0197C6
:102FA0009EAF8DAF8DAD9EAD009769F716C0FE0147
:102FB000FF9660817181828193810E944900DC01CA
:102FC000CB019EAF8DAF8DAD9EAD9AAF89AF89AD70
:102FD0009AAD0197F1F79AAF89AF8CED95E00E9419
:102FE0006B1180E090E0AAEFB4E48DAB9EABAFAB89
:102FF000B8AF6DA97EA98FA998AD20E030E04AEF67
:1030000054E40E941F02DC01CB0189AB9AABABAB4D
:10301000BCAB69A97AA98BA99CA920E030E040E863
:103020005FE30E94250488232CF481E090E098ABB4
:103030008FA73FC069A97AA98BA99CA920E03FEF7F
:103040004FE757E40E94C50318164CF56DA97EA9F9
:103050008FA998AD20E030E040E251E40E941F02C9
:10306000DC01CB01BC01CD010E944900DC01CB0198
:1030700098AB8FA70FC088EC90E09EA78DA78DA579
:103080009EA50197F1F79EA78DA78FA598A90197F7
:1030900098AB8FA78FA598A9009769F714C069A965
:1030A0007AA98BA99CA90E944900DC01CB0198ABAD
:1030B0008FA78FA598A99CA78BA78BA59CA50197E7
:1030C000F1F79CA78BA787EE93E00E946B1181E03C
:1030D0000E946D0D80E090E0A0E0B0E48FA398A77F
:1030E000A9A7BAA76FA178A589A59AA520E030E085
:1030F0004AEF54E40E941F02DC01CB018BA39CA386
:10310000ADA3BEA36BA17CA18DA19EA120E030E068
:1031100040E85FE30E94250488232CF481E090E0DE
:103120009AA389A33FC06BA17CA18DA19EA120E0A1
:103130003FEF4FE757E40E94C50318164CF56FA107
:1031400078A589A59AA520E030E040E251E40E94EC
:103150001F02DC01CB01BC01CD010E944900DC0152
:10316000CB019AA389A30FC088EC90E098A38F8F1E
:103170008F8D98A10197F1F798A38F8F89A19AA1BC
:1031800001979AA389A389A19AA1009769F714C00E
:103190006BA17CA18DA19EA10E944900DC01CB0105
:1031A0009AA389A389A19AA19E8F8D8F8D8D9E8DC3
:1031B0000197F1F79E8F8D8F8AE790E00E94410F73
:1031C000EFC089E890E00E94410F80E090E0AAEF14
:1031D000B3E4898F9A8FAB8FBC8F698D7A8D8B8D7D
:1031E0009C8D20E030E04AEF54E40E941F02DC0195
:1031F000CB018D8B9E8BAF8BB88F6D897E898F892C
:10320000988D20E030E040E85FE30E9425048823A9
:103210002CF481E090E09C8B8B8B3FC06D897E8984
:103220008F89988D20E03FEF4FE757E40E94C50358
:1032300018164CF5698D7A8D8B8D9C8D20E030E0D1
:1032400040E251E40E941F02DC01CB01BC01CD0130
:103250000E944900DC01CB019C8B8B8B0FC088EC5A
:1032600090E09A8B898B89899A890197F1F79A8BDB
:10327000898B8B899C8901979C8B8B8B8B899C89F3
:10328000009769F714C06D897E898F89988D0E9497
:103290004900DC01CB019C8B8B8B8B899C89988BA3
:1032A0008F878F8598890197F1F7988B8F8781E0B9
:1032B0000E946D0D80E090E0A0E0B0E48B879C87D9
:1032C000AD87BE876B857C858D859E8520E030E04F
:1032D0004AEF54E40E941F02DC01CB018F839887E0
:1032E000A987BA876F81788589859A8520E030E043
:1032F00040E85FE30E94250488232CF481E090E0FD
:103300009E838D833FC06F81788589859A8520E073
:103310003FEF4FE757E40E94C50318164CF56B8545
:103320007C858D859E8520E030E040E251E40E945E
:103330001F02DC01CB01BC01CD010E944900DC0170
:10334000CB019E838D830FC088EC90E09C838B83A0
:103350008B819C810197F1F79C838B838D819E816A
:1033600001979E838D838D819E81009769F714C09C
:103370006F81788589859A850E944900DC01CB019F
:103380009E838D838D819E819A83898389819A8191
:103390000197F1F79A83898384E990E00E94410FB5
:1033A000FE01E157FF4F1082FE01E257FF4F1082EE
:1033B0009AC9A1E21A2EAA1BBB1BFD010DC0AA1FB0
:1033C000BB1FEE1FFF1FA217B307E407F50720F08E
:1033D000A21BB30BE40BF50B661F771F881F991F09
:1033E0001A9469F760957095809590959B01AC0152
:1033F000BD01CF0108952F923F924F925F926F923D
:103400007F928F929F92AF92BF92CF92DF92EF9274
:10341000FF920F931F93CF93DF93CDB7DEB7CA1BF5
:10342000DB0B0FB6F894DEBF0FBECDBF09942A8820
:10343000398848885F846E847D848C849B84AA84C8
:10344000B984C884DF80EE80FD800C811B81AA8155
:10345000B981CE0FD11D0FB6F894DEBF0FBECDBF20
:08346000ED010895F894FFCF7F
:10346800456E74657220706173733A005245534516
:10347800540057656C636F6D6500456E7465722006
:1034880070617373776F72640057524F4E472050C4
:103498004153530054525920414741494E3A003153
:1034A8003131310000000000000000003738392FAA
:1034B8003435362A3132332D43303D2B0001020397
:0434C80004050607EA
:00000001FF
